{
  "contractName": "CoinFlip",
  "abi": [
    {
      "inputs": [],
      "stateMutability": "payable",
      "type": "constructor",
      "payable": true
    },
    {
      "anonymous": false,
      "inputs": [
        {
          "indexed": true,
          "internalType": "address",
          "name": "user",
          "type": "address"
        },
        {
          "indexed": false,
          "internalType": "uint256",
          "name": "amount",
          "type": "uint256"
        },
        {
          "indexed": false,
          "internalType": "uint256",
          "name": "balance",
          "type": "uint256"
        }
      ],
      "name": "Deposit",
      "type": "event"
    },
    {
      "anonymous": false,
      "inputs": [
        {
          "indexed": true,
          "internalType": "address",
          "name": "user",
          "type": "address"
        },
        {
          "indexed": false,
          "internalType": "uint256",
          "name": "amount",
          "type": "uint256"
        },
        {
          "indexed": false,
          "internalType": "uint256",
          "name": "balance",
          "type": "uint256"
        }
      ],
      "name": "DepositToContract",
      "type": "event"
    },
    {
      "anonymous": false,
      "inputs": [
        {
          "indexed": true,
          "internalType": "address",
          "name": "user",
          "type": "address"
        },
        {
          "indexed": false,
          "internalType": "uint256",
          "name": "amount",
          "type": "uint256"
        },
        {
          "indexed": false,
          "internalType": "uint256",
          "name": "balance",
          "type": "uint256"
        }
      ],
      "name": "Withdraw",
      "type": "event"
    },
    {
      "anonymous": false,
      "inputs": [
        {
          "indexed": true,
          "internalType": "address",
          "name": "user",
          "type": "address"
        },
        {
          "indexed": false,
          "internalType": "uint256",
          "name": "amount",
          "type": "uint256"
        },
        {
          "indexed": false,
          "internalType": "uint256",
          "name": "balance",
          "type": "uint256"
        }
      ],
      "name": "WithdrawFromContract",
      "type": "event"
    },
    {
      "anonymous": false,
      "inputs": [
        {
          "indexed": true,
          "internalType": "address",
          "name": "player",
          "type": "address"
        },
        {
          "indexed": false,
          "internalType": "uint256",
          "name": "amount",
          "type": "uint256"
        }
      ],
      "name": "betLost",
      "type": "event"
    },
    {
      "anonymous": false,
      "inputs": [
        {
          "indexed": true,
          "internalType": "address",
          "name": "player",
          "type": "address"
        },
        {
          "indexed": false,
          "internalType": "uint256",
          "name": "amount",
          "type": "uint256"
        }
      ],
      "name": "betWin",
      "type": "event"
    },
    {
      "inputs": [],
      "name": "balance",
      "outputs": [
        {
          "internalType": "uint256",
          "name": "",
          "type": "uint256"
        }
      ],
      "stateMutability": "view",
      "type": "function",
      "constant": true
    },
    {
      "inputs": [],
      "name": "owner",
      "outputs": [
        {
          "internalType": "address",
          "name": "",
          "type": "address"
        }
      ],
      "stateMutability": "view",
      "type": "function",
      "constant": true
    },
    {
      "inputs": [
        {
          "internalType": "address",
          "name": "",
          "type": "address"
        }
      ],
      "name": "playerBalance",
      "outputs": [
        {
          "internalType": "uint256",
          "name": "",
          "type": "uint256"
        }
      ],
      "stateMutability": "view",
      "type": "function",
      "constant": true
    },
    {
      "inputs": [
        {
          "internalType": "uint256",
          "name": "side",
          "type": "uint256"
        },
        {
          "internalType": "uint256",
          "name": "value",
          "type": "uint256"
        }
      ],
      "name": "bet",
      "outputs": [],
      "stateMutability": "nonpayable",
      "type": "function"
    },
    {
      "inputs": [],
      "name": "deposit",
      "outputs": [],
      "stateMutability": "payable",
      "type": "function",
      "payable": true
    },
    {
      "inputs": [],
      "name": "depositToContract",
      "outputs": [],
      "stateMutability": "payable",
      "type": "function",
      "payable": true
    },
    {
      "inputs": [],
      "name": "withdrawFromContract",
      "outputs": [],
      "stateMutability": "nonpayable",
      "type": "function"
    },
    {
      "inputs": [],
      "name": "getRandom",
      "outputs": [
        {
          "internalType": "uint256",
          "name": "",
          "type": "uint256"
        }
      ],
      "stateMutability": "view",
      "type": "function",
      "constant": true
    },
    {
      "inputs": [
        {
          "internalType": "uint256",
          "name": "amount",
          "type": "uint256"
        }
      ],
      "name": "withdraw",
      "outputs": [],
      "stateMutability": "nonpayable",
      "type": "function"
    }
  ],
  "bytecode": "0x6080604052336000806101000a81548173ffffffffffffffffffffffffffffffffffffffff021916908373ffffffffffffffffffffffffffffffffffffffff160217905550346001819055506109dd8061005a6000396000f3fe6080604052600436106100865760003560e01c80638da5cb5b116100595780638da5cb5b14610187578063aacc5a17146101c8578063b69ef8a8146101f3578063c8f781c21461021e578063d0e30db01461022857610086565b80632e1a7d4d1461008b5780634e33f83b146100c65780635f589e421461012b5780636ffcc71914610142575b600080fd5b34801561009757600080fd5b506100c4600480360360208110156100ae57600080fd5b8101908080359060200190929190505050610232565b005b3480156100d257600080fd5b50610115600480360360208110156100e957600080fd5b81019080803573ffffffffffffffffffffffffffffffffffffffff169060200190929190505050610322565b6040518082815260200191505060405180910390f35b34801561013757600080fd5b5061014061033a565b005b34801561014e57600080fd5b506101856004803603604081101561016557600080fd5b810190808035906020019092919080359060200190929190505050610452565b005b34801561019357600080fd5b5061019c610603565b604051808273ffffffffffffffffffffffffffffffffffffffff16815260200191505060405180910390f35b3480156101d457600080fd5b506101dd610627565b6040518082815260200191505060405180910390f35b3480156101ff57600080fd5b50610208610639565b6040518082815260200191505060405180910390f35b61022661063f565b005b610230610781565b005b80600260003373ffffffffffffffffffffffffffffffffffffffff1673ffffffffffffffffffffffffffffffffffffffff16815260200190815260200160002054101561027e57600080fd5b6000811161028b57600080fd5b80600260003373ffffffffffffffffffffffffffffffffffffffff1673ffffffffffffffffffffffffffffffffffffffff168152602001908152602001600020600082825403925050819055503373ffffffffffffffffffffffffffffffffffffffff166108fc829081150290604051600060405180830381858888f1935050505015801561031e573d6000803e3d6000fd5b5050565b60026020528060005260406000206000915090505481565b60008054906101000a900473ffffffffffffffffffffffffffffffffffffffff1673ffffffffffffffffffffffffffffffffffffffff163373ffffffffffffffffffffffffffffffffffffffff161461039257600080fd5b6000600154116103a157600080fd5b6000600154905060006001819055503373ffffffffffffffffffffffffffffffffffffffff166108fc829081150290604051600060405180830381858888f193505050501580156103f6573d6000803e3d6000fd5b503373ffffffffffffffffffffffffffffffffffffffff167f173ee011dfe568995c2e30a64b987d9f5291e3077938f0f4a6cd432f37d0e03082600154604051808381526020018281526020019250505060405180910390a250565b60008214806104615750600182145b6104d3576040517f08c379a000000000000000000000000000000000000000000000000000000000815260040180806020018281038252601f8152602001807f73696465206d7573742062652068656164283029206f72207461696c2831290081525060200191505060405180910390fd5b8060015410156104e257600080fd5b80600260003373ffffffffffffffffffffffffffffffffffffffff1673ffffffffffffffffffffffffffffffffffffffff16815260200190815260200160002054101561052e57600080fd5b6000339050600061053d610627565b9050808414156105a45761055182846108e5565b8173ffffffffffffffffffffffffffffffffffffffff167f8a84560b1112b21625846ce57d8642ffa4931ceb9ab292922227dc20b69826c0846040518082815260200191505060405180910390a26105fd565b6105ae8284610946565b8173ffffffffffffffffffffffffffffffffffffffff167fd2d083499c6d20d01232e9455ac75f862208737400192fe1cb804f65ffc750ce846040518082815260200191505060405180910390a25b50505050565b60008054906101000a900473ffffffffffffffffffffffffffffffffffffffff1681565b60006002428161063357fe5b06905090565b60015481565b60008054906101000a900473ffffffffffffffffffffffffffffffffffffffff1673ffffffffffffffffffffffffffffffffffffffff163373ffffffffffffffffffffffffffffffffffffffff161461069757600080fd5b670de0b6b3a764000080341015610716576040517f08c379a00000000000000000000000000000000000000000000000000000000081526004018080602001828103825260168152602001807f6265742073686f756c64206d6f7265207468616e20310000000000000000000081525060200191505060405180910390fd5b346001600082825401925050819055503373ffffffffffffffffffffffffffffffffffffffff167f719a678c6170368d3e08a7171825b667d9f9b32520826d4fab3af939fef66e4234600154604051808381526020018281526020019250505060405180910390a250565b670de0b6b3a764000080341015610800576040517f08c379a00000000000000000000000000000000000000000000000000000000081526004018080602001828103825260168152602001807f6265742073686f756c64206d6f7265207468616e20310000000000000000000081525060200191505060405180910390fd5b34600260003373ffffffffffffffffffffffffffffffffffffffff1673ffffffffffffffffffffffffffffffffffffffff168152602001908152602001600020600082825401925050819055503373ffffffffffffffffffffffffffffffffffffffff167f90890809c654f11d6e72a28fa60149770a0d11ec6c92319d6ceb2bb0a4ea1a1534600260003373ffffffffffffffffffffffffffffffffffffffff1673ffffffffffffffffffffffffffffffffffffffff16815260200190815260200160002054604051808381526020018281526020019250505060405180910390a250565b8060016000828254039250508190555080600260008473ffffffffffffffffffffffffffffffffffffffff1673ffffffffffffffffffffffffffffffffffffffff168152602001908152602001600020600082825401925050819055505050565b8060016000828254019250508190555080600260008473ffffffffffffffffffffffffffffffffffffffff1673ffffffffffffffffffffffffffffffffffffffff16815260200190815260200160002060008282540392505081905550505056fea26469706673582212209e649ab5f87e46b551191df2ab616a4d3bde13b24a4a4d549adebf6df0fe885464736f6c63430007040033",
  "immutableReferences": {},
  "source": "// SPDX-License-Identifier: GPL-3.0\npragma solidity 0.7.4;\nimport \"./Ownable.sol\";\n\n\ncontract CoinFlip is Ownable{\n\n    uint public balance;\n    mapping(address => uint) public playerBalance;\n\n    // events\n    event betWin(address indexed player, uint256 amount);\n    event betLost(address indexed player, uint256 amount);\n\n    event Deposit(address indexed user, uint256 amount, uint256 balance);\n    event Withdraw(address indexed user, uint256 amount, uint256 balance);\n\n    event DepositToContract(address indexed user, uint256 amount, uint256 balance);\n    event WithdrawFromContract(address indexed user, uint256 amount, uint256 balance);\n\n    constructor() payable {\n        balance = msg.value;   \n    }\n\n    modifier costs(uint256 cost){\n        require(msg.value >= cost, \"bet should more than 1\");\n        _;\n    }\n\n    function bet(uint side, uint value) public {\n        require(side == 0 || side == 1, \"side must be head(0) or tail(1)\");\n        require(balance >= value);\n        require(playerBalance[msg.sender] >= value);\n        address payable player = msg.sender;\n        uint betResult = getRandom();\n        if (side == betResult) {\n            transferToPlayer(player, value);\n            emit betWin(player, value);\n        } else {\n            transferToBalance(player, value);\n            emit betLost(player, value);\n        }\n    }\n\n    function deposit() public payable costs(1 ether) {\n        playerBalance[msg.sender] += msg.value;\n        emit Deposit(msg.sender, msg.value, playerBalance[msg.sender]);\n    }\n\n    function depositToContract() public payable onlyOwner costs(1 ether) {\n        balance += msg.value;\n        emit DepositToContract(msg.sender, msg.value, balance);\n    }\n\n    function withdrawFromContract() public onlyOwner {\n        require(balance > 0);\n        uint toTransfer = balance;\n        balance = 0;\n        msg.sender.transfer(toTransfer);\n        emit WithdrawFromContract(msg.sender, toTransfer, balance);\n    }\n\n    function getRandom() virtual public view returns(uint){\n        return block.timestamp % 2;\n    }\n\n    function transferToPlayer(address payable player, uint value) private {\n        balance -= value;\n        playerBalance[player] += value; \n    }\n\n    function transferToBalance(address payable player, uint value) private {\n        balance += value;\n        playerBalance[player] -= value;\n    }\n\n    function withdraw(uint amount) public {\n        require(playerBalance[msg.sender] >= amount);\n        require(amount > 0);\n        playerBalance[msg.sender] -= amount;\n        msg.sender.transfer(amount);\n   }\n}\n",
  "sourcePath": "/Users/dominik/blockchain/flip_coin/backend/contracts/CoinFlip.sol",
  "compiler": {
    "name": "solc",
    "version": "0.7.4+commit.3f05b770.Emscripten.clang"
  },
  "schemaVersion": "3.3.1",
  "updatedAt": "2020-11-11T21:10:19.021Z",
  "networkType": "ethereum",
  "devdoc": {
    "kind": "dev",
    "methods": {},
    "version": 1
  },
  "userdoc": {
    "kind": "user",
    "methods": {},
    "version": 1
  }
}