{
  "contractName": "CoinFlip",
  "abi": [
    {
      "inputs": [],
      "stateMutability": "payable",
      "type": "constructor",
      "payable": true
    },
    {
      "anonymous": false,
      "inputs": [
        {
          "indexed": false,
          "internalType": "address",
          "name": "user",
          "type": "address"
        },
        {
          "indexed": false,
          "internalType": "uint256",
          "name": "amount",
          "type": "uint256"
        },
        {
          "indexed": false,
          "internalType": "uint256",
          "name": "balance",
          "type": "uint256"
        }
      ],
      "name": "Deposit",
      "type": "event"
    },
    {
      "anonymous": false,
      "inputs": [
        {
          "indexed": false,
          "internalType": "address",
          "name": "user",
          "type": "address"
        },
        {
          "indexed": false,
          "internalType": "uint256",
          "name": "amount",
          "type": "uint256"
        },
        {
          "indexed": false,
          "internalType": "uint256",
          "name": "balance",
          "type": "uint256"
        }
      ],
      "name": "Withdraw",
      "type": "event"
    },
    {
      "anonymous": false,
      "inputs": [],
      "name": "betLost",
      "type": "event"
    },
    {
      "anonymous": false,
      "inputs": [],
      "name": "betWin",
      "type": "event"
    },
    {
      "inputs": [],
      "name": "balance",
      "outputs": [
        {
          "internalType": "uint256",
          "name": "",
          "type": "uint256"
        }
      ],
      "stateMutability": "view",
      "type": "function",
      "constant": true
    },
    {
      "inputs": [
        {
          "internalType": "address",
          "name": "",
          "type": "address"
        }
      ],
      "name": "playerBalance",
      "outputs": [
        {
          "internalType": "uint256",
          "name": "",
          "type": "uint256"
        }
      ],
      "stateMutability": "view",
      "type": "function",
      "constant": true
    },
    {
      "inputs": [
        {
          "internalType": "uint256",
          "name": "side",
          "type": "uint256"
        },
        {
          "internalType": "uint256",
          "name": "value",
          "type": "uint256"
        }
      ],
      "name": "bet",
      "outputs": [],
      "stateMutability": "nonpayable",
      "type": "function"
    },
    {
      "inputs": [],
      "name": "deposit",
      "outputs": [],
      "stateMutability": "payable",
      "type": "function",
      "payable": true
    },
    {
      "inputs": [],
      "name": "getRandom",
      "outputs": [
        {
          "internalType": "uint256",
          "name": "",
          "type": "uint256"
        }
      ],
      "stateMutability": "view",
      "type": "function",
      "constant": true
    },
    {
      "inputs": [],
      "name": "withdraw",
      "outputs": [],
      "stateMutability": "nonpayable",
      "type": "function"
    }
  ],
  "bytecode": "0x6080604052346000819055506106988061001a6000396000f3fe6080604052600436106100555760003560e01c80633ccfd60b1461005a5780634e33f83b146100715780636ffcc719146100d6578063aacc5a171461011b578063b69ef8a814610146578063d0e30db014610171575b600080fd5b34801561006657600080fd5b5061006f61017b565b005b34801561007d57600080fd5b506100c06004803603602081101561009457600080fd5b81019080803573ffffffffffffffffffffffffffffffffffffffff16906020019092919050505061029a565b6040518082815260200191505060405180910390f35b3480156100e257600080fd5b50610119600480360360408110156100f957600080fd5b8101908080359060200190929190803590602001909291905050506102b2565b005b34801561012757600080fd5b5061013061041f565b6040518082815260200191505060405180910390f35b34801561015257600080fd5b5061015b610431565b6040518082815260200191505060405180910390f35b610179610437565b005b6000600160003373ffffffffffffffffffffffffffffffffffffffff1673ffffffffffffffffffffffffffffffffffffffff16815260200190815260200160002054116101c757600080fd5b6000600160003373ffffffffffffffffffffffffffffffffffffffff1673ffffffffffffffffffffffffffffffffffffffff1681526020019081526020016000205490506000600160003373ffffffffffffffffffffffffffffffffffffffff1673ffffffffffffffffffffffffffffffffffffffff168152602001908152602001600020819055503373ffffffffffffffffffffffffffffffffffffffff166108fc829081150290604051600060405180830381858888f19350505050158015610296573d6000803e3d6000fd5b5050565b60016020528060005260406000206000915090505481565b60008214806102c15750600182145b610333576040517f08c379a000000000000000000000000000000000000000000000000000000000815260040180806020018281038252601f8152602001807f73696465206d7573742062652068656164283029206f72207461696c2831290081525060200191505060405180910390fd5b80600054101561034257600080fd5b80600160003373ffffffffffffffffffffffffffffffffffffffff1673ffffffffffffffffffffffffffffffffffffffff16815260200190815260200160002054101561038e57600080fd5b6000339050600061039d61041f565b9050808414156103e2576103b182846105a2565b7f128e2e59a6cd95d8b9f0e9e419cdd2a51298d8cdc373567665bc54a554dfa40060405160405180910390a1610419565b6103ec8284610602565b7f6e27035ae72989f90234f1e517a364366e6a29e90d55de67bf34b66339e0704760405160405180910390a15b50505050565b60006002428161042b57fe5b06905090565b60005481565b670de0b6b3a7640000803410156104b6576040517f08c379a00000000000000000000000000000000000000000000000000000000081526004018080602001828103825260168152602001807f6265742073686f756c64206d6f7265207468616e20310000000000000000000081525060200191505060405180910390fd5b34600160003373ffffffffffffffffffffffffffffffffffffffff1673ffffffffffffffffffffffffffffffffffffffff168152602001908152602001600020600082825401925050819055507f90890809c654f11d6e72a28fa60149770a0d11ec6c92319d6ceb2bb0a4ea1a153334600160003373ffffffffffffffffffffffffffffffffffffffff1673ffffffffffffffffffffffffffffffffffffffff16815260200190815260200160002054604051808473ffffffffffffffffffffffffffffffffffffffff168152602001838152602001828152602001935050505060405180910390a150565b80600080828254039250508190555080600160008473ffffffffffffffffffffffffffffffffffffffff1673ffffffffffffffffffffffffffffffffffffffff168152602001908152602001600020600082825401925050819055505050565b80600080828254019250508190555080600160008473ffffffffffffffffffffffffffffffffffffffff1673ffffffffffffffffffffffffffffffffffffffff16815260200190815260200160002060008282540392505081905550505056fea2646970667358221220a45fd37f14aaeee925eadee9b35a2a303ac9f21edcddcbd456b65f9399c085e764736f6c63430007040033",
  "immutableReferences": {},
  "source": "// SPDX-License-Identifier: GPL-3.0\npragma solidity 0.7.4;\n\n\ncontract CoinFlip {\n\n    uint public balance;\n    mapping(address => uint) public playerBalance;\n\n    // events\n    event betWin();\n    event betLost();\n\n    event Deposit(address user, uint256 amount, uint256 balance);\n    event Withdraw(address user, uint256 amount, uint256 balance);\n\n    constructor() payable {\n        balance = msg.value;   \n    }\n\n    modifier costs(uint256 cost){\n        require(msg.value >= cost, \"bet should more than 1\");\n        _;\n    }\n\n    function bet(uint side, uint value) public {\n        require(side == 0 || side == 1, \"side must be head(0) or tail(1)\");\n        require(balance >= value);\n        require(playerBalance[msg.sender] >= value);\n        address payable player = msg.sender;\n        uint betResult = getRandom();\n        if (side == betResult) {\n            transferToPlayer(player, value);\n            emit betWin();\n        } else {\n            transferToBalance(player, value);\n            emit betLost();\n        }\n    }\n\n    function deposit() public payable costs(1 ether) {\n        playerBalance[msg.sender] += msg.value;\n        emit Deposit(msg.sender, msg.value, playerBalance[msg.sender]);\n    }\n\n    function getRandom() virtual public view returns(uint){\n        return block.timestamp % 2;\n    }\n\n    function transferToPlayer(address payable player, uint value) private {\n        balance -= value;\n        playerBalance[player] += value; \n    }\n\n    function transferToBalance(address payable player, uint value) private {\n        balance += value;\n        playerBalance[player] -= value;\n    }\n\n    function withdraw() public {\n        require(playerBalance[msg.sender] > 0);\n        uint amount = playerBalance[msg.sender];\n        playerBalance[msg.sender] = 0;\n        msg.sender.transfer(amount);\n   }\n}\n",
  "sourcePath": "/Users/dominik/blockchain/flip_coin/backend/contracts/CoinFlip.sol",
  "compiler": {
    "name": "solc",
    "version": "0.7.4+commit.3f05b770.Emscripten.clang"
  },
  "schemaVersion": "3.3.1",
  "updatedAt": "2020-11-09T16:03:27.751Z",
  "networkType": "ethereum",
  "devdoc": {
    "kind": "dev",
    "methods": {},
    "version": 1
  },
  "userdoc": {
    "kind": "user",
    "methods": {},
    "version": 1
  }
}