{
  "contractName": "CoinFlip",
  "abi": [
    {
      "inputs": [],
      "stateMutability": "payable",
      "type": "constructor",
      "payable": true
    },
    {
      "anonymous": false,
      "inputs": [
        {
          "indexed": true,
          "internalType": "address",
          "name": "user",
          "type": "address"
        },
        {
          "indexed": false,
          "internalType": "uint256",
          "name": "amount",
          "type": "uint256"
        },
        {
          "indexed": false,
          "internalType": "uint256",
          "name": "balance",
          "type": "uint256"
        }
      ],
      "name": "Deposit",
      "type": "event"
    },
    {
      "anonymous": false,
      "inputs": [
        {
          "indexed": true,
          "internalType": "address",
          "name": "user",
          "type": "address"
        },
        {
          "indexed": false,
          "internalType": "uint256",
          "name": "amount",
          "type": "uint256"
        },
        {
          "indexed": false,
          "internalType": "uint256",
          "name": "balance",
          "type": "uint256"
        }
      ],
      "name": "DepositToContract",
      "type": "event"
    },
    {
      "anonymous": false,
      "inputs": [
        {
          "indexed": true,
          "internalType": "address",
          "name": "user",
          "type": "address"
        },
        {
          "indexed": false,
          "internalType": "uint256",
          "name": "amount",
          "type": "uint256"
        },
        {
          "indexed": false,
          "internalType": "uint256",
          "name": "balance",
          "type": "uint256"
        }
      ],
      "name": "Withdraw",
      "type": "event"
    },
    {
      "anonymous": false,
      "inputs": [
        {
          "indexed": true,
          "internalType": "address",
          "name": "user",
          "type": "address"
        },
        {
          "indexed": false,
          "internalType": "uint256",
          "name": "amount",
          "type": "uint256"
        },
        {
          "indexed": false,
          "internalType": "uint256",
          "name": "balance",
          "type": "uint256"
        }
      ],
      "name": "WithdrawFromContract",
      "type": "event"
    },
    {
      "anonymous": false,
      "inputs": [
        {
          "indexed": true,
          "internalType": "address",
          "name": "player",
          "type": "address"
        },
        {
          "indexed": false,
          "internalType": "uint256",
          "name": "amount",
          "type": "uint256"
        },
        {
          "indexed": true,
          "internalType": "bool",
          "name": "win",
          "type": "bool"
        }
      ],
      "name": "betFinished",
      "type": "event"
    },
    {
      "anonymous": false,
      "inputs": [
        {
          "indexed": true,
          "internalType": "address",
          "name": "player",
          "type": "address"
        },
        {
          "indexed": false,
          "internalType": "uint256",
          "name": "amount",
          "type": "uint256"
        },
        {
          "indexed": false,
          "internalType": "bytes32",
          "name": "queryId",
          "type": "bytes32"
        }
      ],
      "name": "betStarted",
      "type": "event"
    },
    {
      "anonymous": false,
      "inputs": [
        {
          "indexed": false,
          "internalType": "string",
          "name": "description",
          "type": "string"
        }
      ],
      "name": "newProvableQuery",
      "type": "event"
    },
    {
      "inputs": [],
      "name": "balance",
      "outputs": [
        {
          "internalType": "uint256",
          "name": "",
          "type": "uint256"
        }
      ],
      "stateMutability": "view",
      "type": "function",
      "constant": true
    },
    {
      "inputs": [],
      "name": "owner",
      "outputs": [
        {
          "internalType": "address",
          "name": "",
          "type": "address"
        }
      ],
      "stateMutability": "view",
      "type": "function",
      "constant": true
    },
    {
      "inputs": [
        {
          "internalType": "address",
          "name": "",
          "type": "address"
        }
      ],
      "name": "playerBalance",
      "outputs": [
        {
          "internalType": "uint256",
          "name": "",
          "type": "uint256"
        }
      ],
      "stateMutability": "view",
      "type": "function",
      "constant": true
    },
    {
      "inputs": [
        {
          "internalType": "address",
          "name": "",
          "type": "address"
        }
      ],
      "name": "procesingAddresses",
      "outputs": [
        {
          "internalType": "bool",
          "name": "",
          "type": "bool"
        }
      ],
      "stateMutability": "view",
      "type": "function",
      "constant": true
    },
    {
      "inputs": [
        {
          "internalType": "bytes32",
          "name": "",
          "type": "bytes32"
        }
      ],
      "name": "procesingQueries",
      "outputs": [
        {
          "internalType": "address payable",
          "name": "player",
          "type": "address"
        },
        {
          "internalType": "uint256",
          "name": "value",
          "type": "uint256"
        },
        {
          "internalType": "uint256",
          "name": "side",
          "type": "uint256"
        },
        {
          "internalType": "bool",
          "name": "result",
          "type": "bool"
        }
      ],
      "stateMutability": "view",
      "type": "function",
      "constant": true
    },
    {
      "inputs": [
        {
          "internalType": "uint256",
          "name": "side",
          "type": "uint256"
        },
        {
          "internalType": "uint256",
          "name": "value",
          "type": "uint256"
        }
      ],
      "name": "bet",
      "outputs": [],
      "stateMutability": "nonpayable",
      "type": "function"
    },
    {
      "inputs": [
        {
          "internalType": "bytes32",
          "name": "_myid",
          "type": "bytes32"
        },
        {
          "internalType": "string",
          "name": "_result",
          "type": "string"
        }
      ],
      "name": "__callback",
      "outputs": [],
      "stateMutability": "nonpayable",
      "type": "function"
    },
    {
      "inputs": [
        {
          "internalType": "bytes32",
          "name": "_queryId",
          "type": "bytes32"
        },
        {
          "internalType": "string",
          "name": "_result",
          "type": "string"
        },
        {
          "internalType": "bytes",
          "name": "_proof",
          "type": "bytes"
        }
      ],
      "name": "__callback",
      "outputs": [],
      "stateMutability": "nonpayable",
      "type": "function"
    },
    {
      "inputs": [],
      "name": "deposit",
      "outputs": [],
      "stateMutability": "payable",
      "type": "function",
      "payable": true
    },
    {
      "inputs": [
        {
          "internalType": "address",
          "name": "player",
          "type": "address"
        }
      ],
      "name": "toggleProcesingAddresses",
      "outputs": [],
      "stateMutability": "nonpayable",
      "type": "function"
    },
    {
      "inputs": [],
      "name": "depositToContract",
      "outputs": [],
      "stateMutability": "payable",
      "type": "function",
      "payable": true
    },
    {
      "inputs": [],
      "name": "withdrawFromContract",
      "outputs": [],
      "stateMutability": "nonpayable",
      "type": "function"
    },
    {
      "inputs": [],
      "name": "isProvableAddress",
      "outputs": [
        {
          "internalType": "bool",
          "name": "",
          "type": "bool"
        }
      ],
      "stateMutability": "payable",
      "type": "function",
      "payable": true
    },
    {
      "inputs": [
        {
          "internalType": "uint256",
          "name": "amount",
          "type": "uint256"
        }
      ],
      "name": "withdraw",
      "outputs": [],
      "stateMutability": "nonpayable",
      "type": "function"
    }
  ],
  "bytecode": "0x6080604052336000806101000a81548173ffffffffffffffffffffffffffffffffffffffff021916908373ffffffffffffffffffffffffffffffffffffffff16021790555062000059603060f81b6200005f60201b60201c565b62000a83565b600073ffffffffffffffffffffffffffffffffffffffff16600260009054906101000a900473ffffffffffffffffffffffffffffffffffffffff1673ffffffffffffffffffffffffffffffffffffffff161480620000ef57506000620000ed600260009054906101000a900473ffffffffffffffffffffffffffffffffffffffff16620003c560201b60201c565b145b156200010957620001076000620003d060201b60201c565b505b600260009054906101000a900473ffffffffffffffffffffffffffffffffffffffff1673ffffffffffffffffffffffffffffffffffffffff166338cc48316040518163ffffffff1660e01b8152600401602060405180830381600087803b1580156200017457600080fd5b505af115801562000189573d6000803e3d6000fd5b505050506040513d6020811015620001a057600080fd5b810190808051906020019092919050505073ffffffffffffffffffffffffffffffffffffffff16600160009054906101000a900473ffffffffffffffffffffffffffffffffffffffff1673ffffffffffffffffffffffffffffffffffffffff1614620002ef57600260009054906101000a900473ffffffffffffffffffffffffffffffffffffffff1673ffffffffffffffffffffffffffffffffffffffff166338cc48316040518163ffffffff1660e01b8152600401602060405180830381600087803b1580156200027157600080fd5b505af115801562000286573d6000803e3d6000fd5b505050506040513d60208110156200029d57600080fd5b8101908080519060200190929190505050600160006101000a81548173ffffffffffffffffffffffffffffffffffffffff021916908373ffffffffffffffffffffffffffffffffffffffff1602179055505b600160009054906101000a900473ffffffffffffffffffffffffffffffffffffffff1673ffffffffffffffffffffffffffffffffffffffff1663688dcfd7826040518263ffffffff1660e01b815260040180827effffffffffffffffffffffffffffffffffffffffffffffffffffffffffffff19167effffffffffffffffffffffffffffffffffffffffffffffffffffffffffffff19168152602001915050600060405180830381600087803b158015620003a957600080fd5b505af1158015620003be573d6000803e3d6000fd5b5050505050565b6000813b9050919050565b6000620003e2620003e960201b60201c565b9050919050565b60008062000411731d3b2638a7cc9f2cb3d298a3da7a90b67e5506ed620003c560201b60201c565b1115620004bd57731d3b2638a7cc9f2cb3d298a3da7a90b67e5506ed600260006101000a81548173ffffffffffffffffffffffffffffffffffffffff021916908373ffffffffffffffffffffffffffffffffffffffff160217905550620004b36040518060400160405280600b81526020017f6574685f6d61696e6e6574000000000000000000000000000000000000000000815250620009b860201b60201c565b60019050620009b5565b6000620004e473c03a2615d5efaf5f49f60b7bb6583eaec212fdf1620003c560201b60201c565b1115620005905773c03a2615d5efaf5f49f60b7bb6583eaec212fdf1600260006101000a81548173ffffffffffffffffffffffffffffffffffffffff021916908373ffffffffffffffffffffffffffffffffffffffff160217905550620005866040518060400160405280600c81526020017f6574685f726f707374656e330000000000000000000000000000000000000000815250620009b860201b60201c565b60019050620009b5565b6000620005b773b7a07bcf2ba2f2703b24c0691b5278999c59ac7e620003c560201b60201c565b1115620006635773b7a07bcf2ba2f2703b24c0691b5278999c59ac7e600260006101000a81548173ffffffffffffffffffffffffffffffffffffffff021916908373ffffffffffffffffffffffffffffffffffffffff160217905550620006596040518060400160405280600981526020017f6574685f6b6f76616e0000000000000000000000000000000000000000000000815250620009b860201b60201c565b60019050620009b5565b60006200068a73146500cfd35b22e4a392fe0adc06de1a1368ed48620003c560201b60201c565b1115620007365773146500cfd35b22e4a392fe0adc06de1a1368ed48600260006101000a81548173ffffffffffffffffffffffffffffffffffffffff021916908373ffffffffffffffffffffffffffffffffffffffff1602179055506200072c6040518060400160405280600b81526020017f6574685f72696e6b656279000000000000000000000000000000000000000000815250620009b860201b60201c565b60019050620009b5565b60006200075d73a2998efd205fb9d4b4963afb70778d6354ad3a41620003c560201b60201c565b1115620008095773a2998efd205fb9d4b4963afb70778d6354ad3a41600260006101000a81548173ffffffffffffffffffffffffffffffffffffffff021916908373ffffffffffffffffffffffffffffffffffffffff160217905550620007ff6040518060400160405280600a81526020017f6574685f676f65726c6900000000000000000000000000000000000000000000815250620009b860201b60201c565b60019050620009b5565b600062000830736f485c8bf6fc43ea212e93bbf8ce046c7f1cb475620003c560201b60201c565b11156200089657736f485c8bf6fc43ea212e93bbf8ce046c7f1cb475600260006101000a81548173ffffffffffffffffffffffffffffffffffffffff021916908373ffffffffffffffffffffffffffffffffffffffff16021790555060019050620009b5565b6000620008bd7320e12a1f859b3feae5fb2a0a32c18f5a65555bbf620003c560201b60201c565b111562000923577320e12a1f859b3feae5fb2a0a32c18f5a65555bbf600260006101000a81548173ffffffffffffffffffffffffffffffffffffffff021916908373ffffffffffffffffffffffffffffffffffffffff16021790555060019050620009b5565b60006200094a7351efaf4c8b3c9afbd5ab9f4bbc82784ab6ef8faa620003c560201b60201c565b1115620009b0577351efaf4c8b3c9afbd5ab9f4bbc82784ab6ef8faa600260006101000a81548173ffffffffffffffffffffffffffffffffffffffff021916908373ffffffffffffffffffffffffffffffffffffffff16021790555060019050620009b5565b600090505b90565b8060039080519060200190620009d0929190620009d4565b5050565b828054600181600116156101000203166002900490600052602060002090601f016020900481019282601f1062000a1757805160ff191683800117855562000a48565b8280016001018555821562000a48579182015b8281111562000a4757825182559160200191906001019062000a2a565b5b50905062000a57919062000a5b565b5090565b62000a8091905b8082111562000a7c57600081600090555060010162000a62565b5090565b90565b6147f28062000a936000396000f3fe6080604052600436106100dd5760003560e01c80635f589e421161007f578063b69ef8a811610059578063b69ef8a814610577578063c5c833e2146105a2578063c8f781c21461060b578063d0e30db014610615576100dd565b80635f589e42146104c45780636ffcc719146104db5780638da5cb5b14610520576100dd565b806338bbfa50116100bb57806338bbfa50146102405780633b8d60d8146103a95780634e33f83b1461043d57806357a17cde146104a2576100dd565b806327dc297e146100e25780632e1a7d4d146101b45780633812c50c146101ef575b600080fd5b3480156100ee57600080fd5b506101b26004803603604081101561010557600080fd5b81019080803590602001909291908035906020019064010000000081111561012c57600080fd5b82018360208201111561013e57600080fd5b8035906020019184600183028401116401000000008311171561016057600080fd5b91908080601f016020809104026020016040519081016040528093929190818152602001838380828437600081840152601f19601f82011690508083019250505050505050919291929050505061061f565b005b3480156101c057600080fd5b506101ed600480360360208110156101d757600080fd5b8101908080359060200190929190505050610662565b005b3480156101fb57600080fd5b5061023e6004803603602081101561021257600080fd5b81019080803573ffffffffffffffffffffffffffffffffffffffff169060200190929190505050610752565b005b34801561024c57600080fd5b506103a76004803603606081101561026357600080fd5b81019080803590602001909291908035906020019064010000000081111561028a57600080fd5b82018360208201111561029c57600080fd5b803590602001918460018302840111640100000000831117156102be57600080fd5b91908080601f016020809104026020016040519081016040528093929190818152602001838380828437600081840152601f19601f8201169050808301925050505050505091929192908035906020019064010000000081111561032157600080fd5b82018360208201111561033357600080fd5b8035906020019184600183028401116401000000008311171561035557600080fd5b91908080601f016020809104026020016040519081016040528093929190818152602001838380828437600081840152601f19601f8201169050808301925050505050505091929192905050506108bd565b005b3480156103b557600080fd5b506103e2600480360360208110156103cc57600080fd5b8101908080359060200190929190505050610ac2565b604051808573ffffffffffffffffffffffffffffffffffffffff1673ffffffffffffffffffffffffffffffffffffffff1681526020018481526020018381526020018215151515815260200194505050505060405180910390f35b34801561044957600080fd5b5061048c6004803603602081101561046057600080fd5b81019080803573ffffffffffffffffffffffffffffffffffffffff169060200190929190505050610b1f565b6040518082815260200191505060405180910390f35b6104aa610b37565b604051808215151515815260200191505060405180910390f35b3480156104d057600080fd5b506104d9610b85565b005b3480156104e757600080fd5b5061051e600480360360408110156104fe57600080fd5b810190808035906020019092919080359060200190929190505050610c9e565b005b34801561052c57600080fd5b50610535610f61565b604051808273ffffffffffffffffffffffffffffffffffffffff1673ffffffffffffffffffffffffffffffffffffffff16815260200191505060405180910390f35b34801561058357600080fd5b5061058c610f86565b6040518082815260200191505060405180910390f35b3480156105ae57600080fd5b506105f1600480360360208110156105c557600080fd5b81019080803573ffffffffffffffffffffffffffffffffffffffff169060200190929190505050610f8c565b604051808215151515815260200191505060405180910390f35b610613610fac565b005b61061d6110ef565b005b61065e828260006040519080825280601f01601f1916602001820160405280156106585781602001600182028038833980820191505090505b506108bd565b5050565b80600760003373ffffffffffffffffffffffffffffffffffffffff1673ffffffffffffffffffffffffffffffffffffffff1681526020019081526020016000205410156106ae57600080fd5b600081116106bb57600080fd5b80600760003373ffffffffffffffffffffffffffffffffffffffff1673ffffffffffffffffffffffffffffffffffffffff168152602001908152602001600020600082825403925050819055503373ffffffffffffffffffffffffffffffffffffffff166108fc829081150290604051600060405180830381858888f1935050505015801561074e573d6000803e3d6000fd5b5050565b6000809054906101000a900473ffffffffffffffffffffffffffffffffffffffff1673ffffffffffffffffffffffffffffffffffffffff163373ffffffffffffffffffffffffffffffffffffffff16146107ab57600080fd5b60011515600960008373ffffffffffffffffffffffffffffffffffffffff1673ffffffffffffffffffffffffffffffffffffffff16815260200190815260200160002060009054906101000a900460ff1615151415610861576000600960008373ffffffffffffffffffffffffffffffffffffffff1673ffffffffffffffffffffffffffffffffffffffff16815260200190815260200160002060006101000a81548160ff0219169083151502179055506108ba565b6001600960008373ffffffffffffffffffffffffffffffffffffffff1673ffffffffffffffffffffffffffffffffffffffff16815260200190815260200160002060006101000a81548160ff0219169083151502179055505b50565b600115156108c9610b37565b1515146108d557600080fd5b60006108e2848484611253565b60ff16146108ef57610abd565b60006108fa83611383565b9050610904614609565b600860008681526020019081526020016000206040518060800160405290816000820160009054906101000a900473ffffffffffffffffffffffffffffffffffffffff1673ffffffffffffffffffffffffffffffffffffffff1673ffffffffffffffffffffffffffffffffffffffff16815260200160018201548152602001600282015481526020016003820160009054906101000a900460ff161515151581525050905081816040015114156109dd5760018160600190151590811515815250506109d88160000151826020015161140b565b610a01565b6000816060019015159081151581525050610a008160000151826020015161146c565b5b600060096000836000015173ffffffffffffffffffffffffffffffffffffffff1673ffffffffffffffffffffffffffffffffffffffff16815260200190815260200160002060006101000a81548160ff02191690831515021790555080606001511515816000015173ffffffffffffffffffffffffffffffffffffffff167f2d4761b9337e04823a97ece057fc5686ba4c7399ea39dabb5b920f02615087b183602001516040518082815260200191505060405180910390a350505b505050565b60086020528060005260406000206000915090508060000160009054906101000a900473ffffffffffffffffffffffffffffffffffffffff16908060010154908060020154908060030160009054906101000a900460ff16905084565b60076020528060005260406000206000915090505481565b6000610b416114cd565b73ffffffffffffffffffffffffffffffffffffffff163373ffffffffffffffffffffffffffffffffffffffff161415610b7d5760019050610b82565b600090505b90565b6000809054906101000a900473ffffffffffffffffffffffffffffffffffffffff1673ffffffffffffffffffffffffffffffffffffffff163373ffffffffffffffffffffffffffffffffffffffff1614610bde57600080fd5b600060065411610bed57600080fd5b6000600654905060006006819055503373ffffffffffffffffffffffffffffffffffffffff166108fc829081150290604051600060405180830381858888f19350505050158015610c42573d6000803e3d6000fd5b503373ffffffffffffffffffffffffffffffffffffffff167f173ee011dfe568995c2e30a64b987d9f5291e3077938f0f4a6cd432f37d0e03082600654604051808381526020018281526020019250505060405180910390a250565b6000821480610cad5750600182145b610d1f576040517f08c379a000000000000000000000000000000000000000000000000000000000815260040180806020018281038252601f8152602001807f73696465206d7573742062652068656164283029206f72207461696c2831290081525060200191505060405180910390fd5b806006541015610d2e57600080fd5b80600760003373ffffffffffffffffffffffffffffffffffffffff1673ffffffffffffffffffffffffffffffffffffffff168152602001908152602001600020541015610d7a57600080fd5b60001515600960003373ffffffffffffffffffffffffffffffffffffffff1673ffffffffffffffffffffffffffffffffffffffff16815260200190815260200160002060009054906101000a900460ff16151514610dd757600080fd5b6000610de16117ef565b90506001600960003373ffffffffffffffffffffffffffffffffffffffff1673ffffffffffffffffffffffffffffffffffffffff16815260200190815260200160002060006101000a81548160ff02191690831515021790555060405180608001604052803373ffffffffffffffffffffffffffffffffffffffff168152602001838152602001848152602001600015158152506008600083815260200190815260200160002060008201518160000160006101000a81548173ffffffffffffffffffffffffffffffffffffffff021916908373ffffffffffffffffffffffffffffffffffffffff160217905550602082015181600101556040820151816002015560608201518160030160006101000a81548160ff0219169083151502179055509050503373ffffffffffffffffffffffffffffffffffffffff167f525acb9ae2faebcc472fd8857bdfc01d683f2de130e7952514a9c692606026d68383604051808381526020018281526020019250505060405180910390a2505050565b6000809054906101000a900473ffffffffffffffffffffffffffffffffffffffff1681565b60065481565b60096020528060005260406000206000915054906101000a900460ff1681565b6000809054906101000a900473ffffffffffffffffffffffffffffffffffffffff1673ffffffffffffffffffffffffffffffffffffffff163373ffffffffffffffffffffffffffffffffffffffff161461100557600080fd5b670de0b6b3a764000080341015611084576040517f08c379a00000000000000000000000000000000000000000000000000000000081526004018080602001828103825260168152602001807f6265742073686f756c64206d6f7265207468616e20310000000000000000000081525060200191505060405180910390fd5b346006600082825401925050819055503373ffffffffffffffffffffffffffffffffffffffff167f719a678c6170368d3e08a7171825b667d9f9b32520826d4fab3af939fef66e4234600654604051808381526020018281526020019250505060405180910390a250565b670de0b6b3a76400008034101561116e576040517f08c379a00000000000000000000000000000000000000000000000000000000081526004018080602001828103825260168152602001807f6265742073686f756c64206d6f7265207468616e20310000000000000000000081525060200191505060405180910390fd5b34600760003373ffffffffffffffffffffffffffffffffffffffff1673ffffffffffffffffffffffffffffffffffffffff168152602001908152602001600020600082825401925050819055503373ffffffffffffffffffffffffffffffffffffffff167f90890809c654f11d6e72a28fa60149770a0d11ec6c92319d6ceb2bb0a4ea1a1534600760003373ffffffffffffffffffffffffffffffffffffffff1673ffffffffffffffffffffffffffffffffffffffff16815260200190815260200160002054604051808381526020018281526020019250505060405180910390a250565b60007f4c000000000000000000000000000000000000000000000000000000000000008260008151811061128357fe5b602001015160f81c60f81b7effffffffffffffffffffffffffffffffffffffffffffffffffffffffffffff191614158061131657507f5000000000000000000000000000000000000000000000000000000000000000826001815181106112e657fe5b602001015160f81c60f81b7effffffffffffffffffffffffffffffffffffffffffffffffffffffffffffff191614155b806113425750600160ff168260028151811061132e57fe5b602001015160f81c60f81b60f81c60ff1614155b15611350576001905061137c565b60006113658386866113606118b4565b611956565b90508061137657600291505061137c565b60009150505b9392505050565b60006002826040516020018082805190602001908083835b602083106113be578051825260208201915060208101905060208303925061139b565b6001836020036101000a0380198251168184511680821785525050505050509050019150506040516020818303038152906040528051906020012060001c8161140357fe5b069050919050565b8060066000828254039250508190555080600760008473ffffffffffffffffffffffffffffffffffffffff1673ffffffffffffffffffffffffffffffffffffffff168152602001908152602001600020600082825401925050819055505050565b8060066000828254019250508190555080600760008473ffffffffffffffffffffffffffffffffffffffff1673ffffffffffffffffffffffffffffffffffffffff168152602001908152602001600020600082825403925050819055505050565b60008073ffffffffffffffffffffffffffffffffffffffff16600260009054906101000a900473ffffffffffffffffffffffffffffffffffffffff1673ffffffffffffffffffffffffffffffffffffffff16148061155557506000611553600260009054906101000a900473ffffffffffffffffffffffffffffffffffffffff16612001565b145b1561156657611564600061200c565b505b600260009054906101000a900473ffffffffffffffffffffffffffffffffffffffff1673ffffffffffffffffffffffffffffffffffffffff166338cc48316040518163ffffffff1660e01b8152600401602060405180830381600087803b1580156115d057600080fd5b505af11580156115e4573d6000803e3d6000fd5b505050506040513d60208110156115fa57600080fd5b810190808051906020019092919050505073ffffffffffffffffffffffffffffffffffffffff16600160009054906101000a900473ffffffffffffffffffffffffffffffffffffffff1673ffffffffffffffffffffffffffffffffffffffff161461174557600260009054906101000a900473ffffffffffffffffffffffffffffffffffffffff1673ffffffffffffffffffffffffffffffffffffffff166338cc48316040518163ffffffff1660e01b8152600401602060405180830381600087803b1580156116c957600080fd5b505af11580156116dd573d6000803e3d6000fd5b505050506040513d60208110156116f357600080fd5b8101908080519060200190929190505050600160006101000a81548173ffffffffffffffffffffffffffffffffffffffff021916908373ffffffffffffffffffffffffffffffffffffffff1602179055505b600160009054906101000a900473ffffffffffffffffffffffffffffffffffffffff1673ffffffffffffffffffffffffffffffffffffffff1663c281d19e6040518163ffffffff1660e01b8152600401602060405180830381600087803b1580156117af57600080fd5b505af11580156117c3573d6000803e3d6000fd5b505050506040513d60208110156117d957600080fd5b8101908080519060200190929190505050905090565b6000806273f780905060006118396040518060400160405280600681526020017f72616e646f6d00000000000000000000000000000000000000000000000000008152508361201d565b9050600654811115611895577f8d3e652ee736081d60502133e25d9d4bc95925cfe348b72390cbda5276508dce60405180806020018281038252604d815260200180614730604d913960600191505060405180910390a1600080fd5b600080905060006118a8826001866123ba565b90508094505050505090565b606060038054600181600116156101000203166002900480601f01602080910402602001604051908101604052809291908181526020018280546001816001161561010002031660029004801561194c5780601f106119215761010080835404028352916020019161194c565b820191906000526020600020905b81548152906001019060200180831161192f57829003601f168201915b5050505050905090565b600080602060028760458151811061196a57fe5b602001015160f81c60f81b60f81c60ff1601604401019050606060206040519080825280601f01601f1916602001820160405280156119b85781602001600182028038833980820191505090505b5090506119ca87836020846000612955565b50600284876040516020018083805190602001908083835b60208310611a0557805182526020820191506020810190506020830392506119e2565b6001836020036101000a038019825116818451168082178552505050505050905001828152602001925050506040516020818303038152906040526040518082805190602001908083835b60208310611a735780518252602082019150602081019050602083039250611a50565b6001836020036101000a038019825116818451168082178552505050505050905001915050602060405180830381855afa158015611ab5573d6000803e3d6000fd5b5050506040513d6020811015611aca57600080fd5b81019080805190602001909291905050506040516020018082815260200191505060405160208183030381529060405280519060200120818051906020012014611b1957600092505050611ff9565b60606002886001604986010181518110611b2f57fe5b602001015160f81c60f81b60f81c60ff16016040519080825280601f01601f191660200182016040528015611b735781602001600182028038833980820191505090505b509050611b8888604985018351846000612955565b50611c536002826040518082805190602001908083835b60208310611bc25780518252602082019150602081019050602083039250611b9f565b6001836020036101000a038019825116818451168082178552505050505050905001915050602060405180830381855afa158015611c04573d6000803e3d6000fd5b5050506040513d6020811015611c1957600080fd5b8101908080519060200190929190505050878a6008602088010181518110611c3d57fe5b602001015160f81c60f81b60f81c60ff166129b4565b611c635760009350505050611ff9565b606060296040519080825280601f01601f191660200182016040528015611c995781602001600182028038833980820191505090505b509050611cae89602086016029846000612955565b506060604080519080825280601f01601f191660200182016040528015611ce45781602001600182028038833980820191505090505b5090506000604184516029602089010101019050611d0a8b604083036040856000612955565b5060006002836040518082805190602001908083835b60208310611d435780518252602082019150602081019050602083039250611d20565b6001836020036101000a038019825116818451168082178552505050505050905001915050602060405180830381855afa158015611d85573d6000803e3d6000fd5b5050506040513d6020811015611d9a57600080fd5b8101908080519060200190929190505050905083816040516020018083805190602001908083835b60208310611de55780518252602082019150602081019050602083039250611dc2565b6001836020036101000a0380198251168184511680821785525050505050509050018281526020019250505060405160208183030381529060405280519060200120600460008d8152602001908152602001600020541415611e5d57600460008c815260200190815260200160002060009055611e6d565b6000975050505050505050611ff9565b606060496040519080825280601f01601f191660200182016040528015611ea35781602001600182028038833980820191505090505b509050611eb58d896049846000612955565b50611f5e6002826040518082805190602001908083835b60208310611eef5780518252602082019150602081019050602083039250611ecc565b6001836020036101000a038019825116818451168082178552505050505050905001915050602060405180830381855afa158015611f31573d6000803e3d6000fd5b5050506040513d6020811015611f4657600080fd5b81019080805190602001909291905050508786612a64565b611f7357600098505050505050505050611ff9565b6005600083815260200190815260200160002060009054906101000a900460ff16611fcd57611fa28d84612c22565b6005600084815260200190815260200160002060006101000a81548160ff0219169083151502179055505b6005600083815260200190815260200160002060009054906101000a900460ff16985050505050505050505b949350505050565b6000813b9050919050565b600061201661303a565b9050919050565b60008073ffffffffffffffffffffffffffffffffffffffff16600260009054906101000a900473ffffffffffffffffffffffffffffffffffffffff1673ffffffffffffffffffffffffffffffffffffffff1614806120a5575060006120a3600260009054906101000a900473ffffffffffffffffffffffffffffffffffffffff16612001565b145b156120b6576120b4600061200c565b505b600260009054906101000a900473ffffffffffffffffffffffffffffffffffffffff1673ffffffffffffffffffffffffffffffffffffffff166338cc48316040518163ffffffff1660e01b8152600401602060405180830381600087803b15801561212057600080fd5b505af1158015612134573d6000803e3d6000fd5b505050506040513d602081101561214a57600080fd5b810190808051906020019092919050505073ffffffffffffffffffffffffffffffffffffffff16600160009054906101000a900473ffffffffffffffffffffffffffffffffffffffff1673ffffffffffffffffffffffffffffffffffffffff161461229557600260009054906101000a900473ffffffffffffffffffffffffffffffffffffffff1673ffffffffffffffffffffffffffffffffffffffff166338cc48316040518163ffffffff1660e01b8152600401602060405180830381600087803b15801561221957600080fd5b505af115801561222d573d6000803e3d6000fd5b505050506040513d602081101561224357600080fd5b8101908080519060200190929190505050600160006101000a81548173ffffffffffffffffffffffffffffffffffffffff021916908373ffffffffffffffffffffffffffffffffffffffff1602179055505b600160009054906101000a900473ffffffffffffffffffffffffffffffffffffffff1673ffffffffffffffffffffffffffffffffffffffff16632ef3accc84846040518363ffffffff1660e01b81526004018080602001838152602001828103825284818151815260200191508051906020019080838360005b8381101561232a57808201518184015260208101905061230f565b50505050905090810190601f1680156123575780820380516001836020036101000a031916815260200191505b509350505050602060405180830381600087803b15801561237757600080fd5b505af115801561238b573d6000803e3d6000fd5b505050506040513d60208110156123a157600080fd5b8101908080519060200190929190505050905092915050565b600080831180156123cc575060208311155b6123d557600080fd5b600a84029350606060016040519080825280601f01601f1916602001820160405280156124115781602001600182028038833980820191505090505b5090508360f81b8160008151811061242557fe5b60200101907effffffffffffffffffffffffffffffffffffffffffffffffffffffffffffff1916908160001a905350606060206040519080825280601f01601f19166020018201604052801561248a5781602001600182028038833980820191505090505b509050606060206040519080825280601f01601f1916602001820160405280156124c35781602001600182028038833980820191505090505b50905060006124d0613591565b905060208352424118600143034018602084015260208252806020830152606060206040519080825280601f01601f1916602001820160405280156125245781602001600182028038833980820191505090505b509050886020820152606060086040519080825280601f01601f1916602001820160405280156125635781602001600182028038833980820191505090505b5090506125768260186008846000612955565b5061257f614649565b604051806080016040528087815260200188815260200186815260200184815250905060006125e46040518060400160405280600681526020017f72616e646f6d0000000000000000000000000000000000000000000000000000815250838c6138b1565b9050606060086040519080825280601f01601f19166020018201604052801561261c5781602001600182028038833980820191505090505b50905060208401517f0100000000000000000000000000000000000000000000000000000000000000810460278301537e01000000000000000000000000000000000000000000000000000000000000810460268301537d010000000000000000000000000000000000000000000000000000000000810460258301537c0100000000000000000000000000000000000000000000000000000000810460248301537b01000000000000000000000000000000000000000000000000000000810460238301537a01000000000000000000000000000000000000000000000000000081046022830153790100000000000000000000000000000000000000000000000000810460218301537801000000000000000000000000000000000000000000000000810460208301535061294282828560016004811061275b57fe5b602002015160028760006004811061276f57fe5b60200201516040518082805190602001908083835b602083106127a75780518252602082019150602081019050602083039250612784565b6001836020036101000a038019825116818451168082178552505050505050905001915050602060405180830381855afa1580156127e9573d6000803e3d6000fd5b5050506040513d60208110156127fe57600080fd5b81019080805190602001909291905050508760026004811061281c57fe5b60200201516040516020018085805190602001908083835b602083106128575780518252602082019150602081019050602083039250612834565b6001836020036101000a03801982511681845116808217855250505050505090500184805190602001908083835b602083106128a85780518252602082019150602081019050602083039250612885565b6001836020036101000a03801982511681845116808217855250505050505090500183815260200182805190602001908083835b602083106128ff57805182526020820191506020810190506020830392506128dc565b6001836020036101000a03801982511681845116808217855250505050505090500194505050505060405160208183030381529060405280519060200120613c20565b8199505050505050505050509392505050565b606060008285019050808451101561296c57600080fd5b600086602001905060008460200190505b8688602001018210156129a5578189015180828801525060208201915060208101905061297d565b85935050505095945050505050565b60008060019050828451146129c857600080fd5b60008090505b83811015612a58578481815181106129e257fe5b602001015160f81c60f81b7effffffffffffffffffffffffffffffffffffffffffffffffffffffffffffff1916868260208110612a1b57fe5b1a60f81b7effffffffffffffffffffffffffffffffffffffffffffffffffffffffffffff191614612a4b57600091505b80806001019150506129ce565b50809150509392505050565b6000806000806000606060206040519080825280601f01601f191660200182016040528015612aa25781602001600182028038833980820191505090505b5090506000602089600381518110612ab657fe5b602001015160f81c60f81b60f81c60ff16036004019050612adc89826020856000612955565b9150606060206040519080825280601f01601f191660200182016040528015612b145781602001600182028038833980820191505090505b509050602282019150612b508a60208c6001860381518110612b3257fe5b602001015160f81c60f81b60f81c60ff160384016020846000612955565b90506020830151945060208101519350612b6d8b601b8787613c3c565b80975081985050508573ffffffffffffffffffffffffffffffffffffffff16898051906020012060001c73ffffffffffffffffffffffffffffffffffffffff161415612bc3576001975050505050505050612c1b565b612bd08b601c8787613c3c565b80975081985050508573ffffffffffffffffffffffffffffffffffffffff16898051906020012060001c73ffffffffffffffffffffffffffffffffffffffff16149750505050505050505b9392505050565b60008060606002856001860181518110612c3857fe5b602001015160f81c60f81b60f81c60ff16016040519080825280601f01601f191660200182016040528015612c7c5781602001600182028038833980820191505090505b509050612c8e85858351846000612955565b506060604080519080825280601f01601f191660200182016040528015612cc45781602001600182028038833980820191505090505b509050612cd78660046040846000612955565b50606060626040519080825280601f01601f191660200182016040528015612d0e5781602001600182028038833980820191505090505b509050600160f81b81600081518110612d2357fe5b60200101907effffffffffffffffffffffffffffffffffffffffffffffffffffffffffffff1916908160001a905350612d6487604188036041846001612955565b5060606040518060400160405280602081526020017ffd94fa71bc0ba10d39d464d0d8f465efeef0a2764e3887fcc9df41ded20f505c8152509050612daf8160006020856042612955565b50612e586002836040518082805190602001908083835b60208310612de95780518252602082019150602081019050602083039250612dc6565b6001836020036101000a038019825116818451168082178552505050505050905001915050602060405180830381855afa158015612e2b573d6000803e3d6000fd5b5050506040513d6020811015612e4057600080fd5b81019080805190602001909291905050508585612a64565b945084612e6d57600095505050505050613034565b606060405180606001604052806040815260200161477d604091399050606060426040519080825280601f01601f191660200182016040528015612ec05781602001600182028038833980820191505090505b50905060fe60f81b81600081518110612ed557fe5b60200101907effffffffffffffffffffffffffffffffffffffffffffffffffffffffffffff1916908160001a905350612f148a60036041846001612955565b50606060028b604581518110612f2657fe5b602001015160f81c60f81b60f81c60ff16016040519080825280601f01601f191660200182016040528015612f6a5781602001600182028038833980820191505090505b509050612f7d8b60448351846000612955565b506130266002836040518082805190602001908083835b60208310612fb75780518252602082019150602081019050602083039250612f94565b6001836020036101000a038019825116818451168082178552505050505050905001915050602060405180830381855afa158015612ff9573d6000803e3d6000fd5b5050506040513d602081101561300e57600080fd5b81019080805190602001909291905050508285612a64565b975087985050505050505050505b92915050565b60008061305a731d3b2638a7cc9f2cb3d298a3da7a90b67e5506ed612001565b11156130fc57731d3b2638a7cc9f2cb3d298a3da7a90b67e5506ed600260006101000a81548173ffffffffffffffffffffffffffffffffffffffff021916908373ffffffffffffffffffffffffffffffffffffffff1602179055506130f36040518060400160405280600b81526020017f6574685f6d61696e6e6574000000000000000000000000000000000000000000815250613c80565b6001905061358e565b600061311b73c03a2615d5efaf5f49f60b7bb6583eaec212fdf1612001565b11156131bd5773c03a2615d5efaf5f49f60b7bb6583eaec212fdf1600260006101000a81548173ffffffffffffffffffffffffffffffffffffffff021916908373ffffffffffffffffffffffffffffffffffffffff1602179055506131b46040518060400160405280600c81526020017f6574685f726f707374656e330000000000000000000000000000000000000000815250613c80565b6001905061358e565b60006131dc73b7a07bcf2ba2f2703b24c0691b5278999c59ac7e612001565b111561327e5773b7a07bcf2ba2f2703b24c0691b5278999c59ac7e600260006101000a81548173ffffffffffffffffffffffffffffffffffffffff021916908373ffffffffffffffffffffffffffffffffffffffff1602179055506132756040518060400160405280600981526020017f6574685f6b6f76616e0000000000000000000000000000000000000000000000815250613c80565b6001905061358e565b600061329d73146500cfd35b22e4a392fe0adc06de1a1368ed48612001565b111561333f5773146500cfd35b22e4a392fe0adc06de1a1368ed48600260006101000a81548173ffffffffffffffffffffffffffffffffffffffff021916908373ffffffffffffffffffffffffffffffffffffffff1602179055506133366040518060400160405280600b81526020017f6574685f72696e6b656279000000000000000000000000000000000000000000815250613c80565b6001905061358e565b600061335e73a2998efd205fb9d4b4963afb70778d6354ad3a41612001565b11156134005773a2998efd205fb9d4b4963afb70778d6354ad3a41600260006101000a81548173ffffffffffffffffffffffffffffffffffffffff021916908373ffffffffffffffffffffffffffffffffffffffff1602179055506133f76040518060400160405280600a81526020017f6574685f676f65726c6900000000000000000000000000000000000000000000815250613c80565b6001905061358e565b600061341f736f485c8bf6fc43ea212e93bbf8ce046c7f1cb475612001565b111561348357736f485c8bf6fc43ea212e93bbf8ce046c7f1cb475600260006101000a81548173ffffffffffffffffffffffffffffffffffffffff021916908373ffffffffffffffffffffffffffffffffffffffff1602179055506001905061358e565b60006134a27320e12a1f859b3feae5fb2a0a32c18f5a65555bbf612001565b1115613506577320e12a1f859b3feae5fb2a0a32c18f5a65555bbf600260006101000a81548173ffffffffffffffffffffffffffffffffffffffff021916908373ffffffffffffffffffffffffffffffffffffffff1602179055506001905061358e565b60006135257351efaf4c8b3c9afbd5ab9f4bbc82784ab6ef8faa612001565b1115613589577351efaf4c8b3c9afbd5ab9f4bbc82784ab6ef8faa600260006101000a81548173ffffffffffffffffffffffffffffffffffffffff021916908373ffffffffffffffffffffffffffffffffffffffff1602179055506001905061358e565b600090505b90565b60008073ffffffffffffffffffffffffffffffffffffffff16600260009054906101000a900473ffffffffffffffffffffffffffffffffffffffff1673ffffffffffffffffffffffffffffffffffffffff16148061361957506000613617600260009054906101000a900473ffffffffffffffffffffffffffffffffffffffff16612001565b145b1561362a57613628600061200c565b505b600260009054906101000a900473ffffffffffffffffffffffffffffffffffffffff1673ffffffffffffffffffffffffffffffffffffffff166338cc48316040518163ffffffff1660e01b8152600401602060405180830381600087803b15801561369457600080fd5b505af11580156136a8573d6000803e3d6000fd5b505050506040513d60208110156136be57600080fd5b810190808051906020019092919050505073ffffffffffffffffffffffffffffffffffffffff16600160009054906101000a900473ffffffffffffffffffffffffffffffffffffffff1673ffffffffffffffffffffffffffffffffffffffff161461380957600260009054906101000a900473ffffffffffffffffffffffffffffffffffffffff1673ffffffffffffffffffffffffffffffffffffffff166338cc48316040518163ffffffff1660e01b8152600401602060405180830381600087803b15801561378d57600080fd5b505af11580156137a1573d6000803e3d6000fd5b505050506040513d60208110156137b757600080fd5b8101908080519060200190929190505050600160006101000a81548173ffffffffffffffffffffffffffffffffffffffff021916908373ffffffffffffffffffffffffffffffffffffffff1602179055505b600160009054906101000a900473ffffffffffffffffffffffffffffffffffffffff1673ffffffffffffffffffffffffffffffffffffffff1663abaa5f3e6040518163ffffffff1660e01b815260040160206040518083038186803b15801561387157600080fd5b505afa158015613885573d6000803e3d6000fd5b505050506040513d602081101561389b57600080fd5b8101908080519060200190929190505050905090565b60008073ffffffffffffffffffffffffffffffffffffffff16600260009054906101000a900473ffffffffffffffffffffffffffffffffffffffff1673ffffffffffffffffffffffffffffffffffffffff16148061393957506000613937600260009054906101000a900473ffffffffffffffffffffffffffffffffffffffff16612001565b145b1561394a57613948600061200c565b505b600260009054906101000a900473ffffffffffffffffffffffffffffffffffffffff1673ffffffffffffffffffffffffffffffffffffffff166338cc48316040518163ffffffff1660e01b8152600401602060405180830381600087803b1580156139b457600080fd5b505af11580156139c8573d6000803e3d6000fd5b505050506040513d60208110156139de57600080fd5b810190808051906020019092919050505073ffffffffffffffffffffffffffffffffffffffff16600160009054906101000a900473ffffffffffffffffffffffffffffffffffffffff1673ffffffffffffffffffffffffffffffffffffffff1614613b2957600260009054906101000a900473ffffffffffffffffffffffffffffffffffffffff1673ffffffffffffffffffffffffffffffffffffffff166338cc48316040518163ffffffff1660e01b8152600401602060405180830381600087803b158015613aad57600080fd5b505af1158015613ac1573d6000803e3d6000fd5b505050506040513d6020811015613ad757600080fd5b8101908080519060200190929190505050600160006101000a81548173ffffffffffffffffffffffffffffffffffffffff021916908373ffffffffffffffffffffffffffffffffffffffff1602179055505b60606004604051908082528060200260200182016040528015613b6057816020015b6060815260200190600190039081613b4b5790505b50905083600060048110613b7057fe5b602002015181600081518110613b8257fe5b602002602001018190525083600160048110613b9a57fe5b602002015181600181518110613bac57fe5b602002602001018190525083600260048110613bc457fe5b602002015181600281518110613bd657fe5b602002602001018190525083600360048110613bee57fe5b602002015181600381518110613c0057fe5b6020026020010181905250613c16858285613c9a565b9150509392505050565b8060046000848152602001908152602001600020819055505050565b60008060008060405188815287602082015286604082015285606082015260208160808360006001610bb8f192508051915050818193509350505094509492505050565b8060039080519060200190613c96929190614670565b5050565b60008073ffffffffffffffffffffffffffffffffffffffff16600260009054906101000a900473ffffffffffffffffffffffffffffffffffffffff1673ffffffffffffffffffffffffffffffffffffffff161480613d2257506000613d20600260009054906101000a900473ffffffffffffffffffffffffffffffffffffffff16612001565b145b15613d3357613d31600061200c565b505b600260009054906101000a900473ffffffffffffffffffffffffffffffffffffffff1673ffffffffffffffffffffffffffffffffffffffff166338cc48316040518163ffffffff1660e01b8152600401602060405180830381600087803b158015613d9d57600080fd5b505af1158015613db1573d6000803e3d6000fd5b505050506040513d6020811015613dc757600080fd5b810190808051906020019092919050505073ffffffffffffffffffffffffffffffffffffffff16600160009054906101000a900473ffffffffffffffffffffffffffffffffffffffff1673ffffffffffffffffffffffffffffffffffffffff1614613f1257600260009054906101000a900473ffffffffffffffffffffffffffffffffffffffff1673ffffffffffffffffffffffffffffffffffffffff166338cc48316040518163ffffffff1660e01b8152600401602060405180830381600087803b158015613e9657600080fd5b505af1158015613eaa573d6000803e3d6000fd5b505050506040513d6020811015613ec057600080fd5b8101908080519060200190929190505050600160006101000a81548173ffffffffffffffffffffffffffffffffffffffff021916908373ffffffffffffffffffffffffffffffffffffffff1602179055505b6000600160009054906101000a900473ffffffffffffffffffffffffffffffffffffffff1673ffffffffffffffffffffffffffffffffffffffff16632ef3accc86856040518363ffffffff1660e01b81526004018080602001838152602001828103825284818151815260200191508051906020019080838360005b83811015613fa9578082015181840152602081019050613f8e565b50505050905090810190601f168015613fd65780820380516001836020036101000a031916815260200191505b509350505050602060405180830381600087803b158015613ff657600080fd5b505af115801561400a573d6000803e3d6000fd5b505050506040513d602081101561402057600080fd5b81019080805190602001909291905050509050823a02670de0b6b3a764000001811115614053576000801b9150506141f9565b606061405e85614200565b9050600160009054906101000a900473ffffffffffffffffffffffffffffffffffffffff1673ffffffffffffffffffffffffffffffffffffffff1663c55c1cb68360008985896040518663ffffffff1660e01b8152600401808581526020018060200180602001848152602001838103835286818151815260200191508051906020019080838360005b838110156141035780820151818401526020810190506140e8565b50505050905090810190601f1680156141305780820380516001836020036101000a031916815260200191505b50838103825285818151815260200191508051906020019080838360005b8381101561416957808201518184015260208101905061414e565b50505050905090810190601f1680156141965780820380516001836020036101000a031916815260200191505b5096505050505050506020604051808303818588803b1580156141b857600080fd5b505af11580156141cc573d6000803e3d6000fd5b50505050506040513d60208110156141e357600080fd5b8101908080519060200190929190505050925050505b9392505050565b606061420a614280565b6142126146f0565b61421e8161040061428c565b614227816142d6565b60008090505b83518110156142695761425c84828151811061424557fe5b6020026020010151836142e490919063ffffffff16565b808060010191505061422d565b5061427381614309565b8060000151915050919050565b60405180590338823950565b600081905060006020828161429d57fe5b06146142b657602081816142ad57fe5b06602003810190505b808360200181815250506040518084526000815281810160405250505050565b6142e1816004614317565b50565b6142f18260028351614338565b614304818361447890919063ffffffff16565b505050565b614314816007614317565b50565b614334601f60058360ff16901b178361452390919063ffffffff16565b5050565b601781116143645761435f8160058460ff16901b60ff16178461452390919063ffffffff16565b614473565b60ff81116143a557614389601860058460ff16901b178461452390919063ffffffff16565b61439f816001856145639092919063ffffffff16565b50614472565b61ffff81116143e7576143cb601960058460ff16901b178461452390919063ffffffff16565b6143e1816002856145639092919063ffffffff16565b50614471565b63ffffffff811161442b5761440f601a60058460ff16901b178461452390919063ffffffff16565b614425816004856145639092919063ffffffff16565b50614470565b67ffffffffffffffff811161446f57614457601b60058460ff16901b178461452390919063ffffffff16565b61446d816008856145639092919063ffffffff16565b505b5b5b5b5b505050565b6144806146f0565b826020015183600001515183510111156144b0576144af8360026144a9866020015186516145ca565b026145e6565b5b60008060008451905085518051602081830101945086518101825260208701935050505b602081106144f757815183526020830192506020820191506020810390506144d4565b60006001826020036101000a039050801983511681855116818117865250508694505050505092915050565b81602001516001836000015151011115614549576145488260028460200151026145e6565b5b815180516020818301018381536001820183525050505050565b61456b6146f0565b836020015184600001515183011115614599576145988460026145928760200151866145ca565b026145e6565b5b60006001836101000a0390508451805184818301018684198251161781528582018352505050849150509392505050565b6000818311156145dc578290506145e0565b8190505b92915050565b6060826000015190506145f9838361428c565b6146038382614478565b50505050565b6040518060800160405280600073ffffffffffffffffffffffffffffffffffffffff16815260200160008152602001600081526020016000151581525090565b60405180608001604052806004905b60608152602001906001900390816146585790505090565b828054600181600116156101000203166002900490600052602060002090601f016020900481019282601f106146b157805160ff19168380011785556146df565b828001600101855582156146df579182015b828111156146de5782518255916020019190600101906146c3565b5b5090506146ec919061470a565b5090565b604051806040016040528060608152602001600081525090565b61472c91905b80821115614728576000816000905550600101614710565b5090565b9056fe50726f7661626c6520717565727920776173204e4f542073656e742c20706c656173652061646420736f6d652045544820746f20636f76657220666f7220746865207175657279206665653a207fb956469c5c9b89840d55b43537e66a98dd4811ea0a27224272c2e5622911e8537a2f8e86a46baec82864e98dd01e9ccc2f8bc5dfc9cbe5a91a290498dd96e4a2646970667358221220c136db7f735b43a244564bf360d29d23d62d6c6656d8580581ab2cc20280524a64736f6c63430006020033",
  "source": "// SPDX-License-Identifier: GPL-3.0\npragma solidity > 0.6.1 < 0.7.0;\nimport \"./Ownable.sol\";\nimport\"./provableAPI.sol\";\n\n\ncontract CoinFlip is Ownable, usingProvable{\n\n    uint256 constant NUM_RANDOM_BYTES_REQUESTED = 1;\n\n    uint public balance;\n\n    mapping(address => uint) public playerBalance;\n    mapping(bytes32 => Bet) public procesingQueries;\n    mapping(address => bool) public procesingAddresses; \n\n    struct Bet {                                       \n        address payable player;                         \n        uint value;     \n        uint side;                                \n        bool result;                                    \n    }\n    \n    // events\n    event betFinished(address indexed player, uint256 amount, bool indexed win);\n    event betStarted(address indexed player, uint256 amount, bytes32 queryId);\n\n    event Deposit(address indexed user, uint256 amount, uint256 balance);\n    event Withdraw(address indexed user, uint256 amount, uint256 balance);\n\n    event DepositToContract(address indexed user, uint256 amount, uint256 balance);\n    event WithdrawFromContract(address indexed user, uint256 amount, uint256 balance);\n\n    event newProvableQuery(string description);\n\n    constructor() payable public {\n        provable_setProof(proofType_Ledger);\n    }\n\n    modifier costs(uint256 cost){\n        require(msg.value >= cost, \"bet should more than 1\");\n        _;\n    }\n\n    function bet(uint side, uint256 value) public {\n        require(side == 0 || side == 1, \"side must be head(0) or tail(1)\");\n        require(balance >= value);\n        require(playerBalance[msg.sender] >= value);\n        require(procesingAddresses[msg.sender] == false);\n        bytes32 queryId = makeProvableQuery();\n        procesingAddresses[msg.sender] = true;\n        procesingQueries[queryId] = Bet({player: msg.sender, value: value, side: side, result: false});\n        emit betStarted(msg.sender, value, queryId);\n    }\n\n    function __callback(bytes32 _queryId, string memory _result, bytes memory _proof) override public {\n        require(isProvableAddress() == true);\n         if (\n                provable_randomDS_proofVerify__returnCode(\n                    _queryId,\n                    _result,\n                    _proof\n                ) != 0\n        ) {\n        } else {\n            uint betResult = getRandom(_result);\n            Bet memory lastBet  = procesingQueries[_queryId];\n            if (lastBet.side == betResult) {\n                lastBet.result = true;\n                transferToPlayer(lastBet.player, lastBet.value);\n            } else {\n                lastBet.result = false;\n                transferToBalance(lastBet.player, lastBet.value);                \n            }\n            procesingAddresses[lastBet.player] = false;\n            emit betFinished(lastBet.player, lastBet.value, lastBet.result);\n        }\n    }\n\n    function makeProvableQuery() virtual internal returns(bytes32){\n        uint256 GAS_FOR_CALLBACK = 7600000;\n        uint provablePrice = provable_getPrice(\"random\", GAS_FOR_CALLBACK);\n        if (provablePrice > balance) {\n            emit newProvableQuery(\"Provable query was NOT sent, please add some ETH to cover for the query fee: \");\n            revert();\n        }\n        uint256 QUERY_EXECUTION_DELAY = 0;\n        \n        bytes32 queryId = provable_newRandomDSQuery(\n            QUERY_EXECUTION_DELAY,\n            NUM_RANDOM_BYTES_REQUESTED,\n            GAS_FOR_CALLBACK\n        );\n        return queryId;\n    }\n\n    function deposit() public payable costs(1 ether) {\n        playerBalance[msg.sender] += msg.value;\n        emit Deposit(msg.sender, msg.value, playerBalance[msg.sender]);\n    }\n\n    function toggleProcesingAddresses(address player) public onlyOwner {\n        if (procesingAddresses[player] == true) {\n            procesingAddresses[player] = false;\n        } else {\n            procesingAddresses[player] = true;\n        }\n    }\n\n    function depositToContract() public payable onlyOwner costs(1 ether) {\n        balance += msg.value;\n        emit DepositToContract(msg.sender, msg.value, balance);\n    }\n\n    function withdrawFromContract() public onlyOwner {\n        require(balance > 0);\n        uint toTransfer = balance;\n        balance = 0;\n        msg.sender.transfer(toTransfer);\n        emit WithdrawFromContract(msg.sender, toTransfer, balance);\n    }\n\n    function getRandom(string memory _result) virtual internal view returns(uint){\n        return uint(keccak256(abi.encodePacked(_result))) % 2; \n    }\n\n    function isProvableAddress() virtual public payable returns(bool){\n        if (msg.sender == provable_cbAddress()) {\n            return true;\n        }\n        return false;\n    }\n\n    function transferToPlayer(address payable player, uint value) private {\n        balance -= value;\n        playerBalance[player] += value; \n    }\n\n    function transferToBalance(address payable player, uint value) private {\n        balance += value;\n        playerBalance[player] -= value;\n    }\n\n    function withdraw(uint amount) public {\n        require(playerBalance[msg.sender] >= amount);\n        require(amount > 0);\n        playerBalance[msg.sender] -= amount;\n        msg.sender.transfer(amount);\n   }\n}\n",
  "sourcePath": "/Users/dominik/blockchain/flip_coin/backend/contracts/CoinFlip.sol",
  "compiler": {
    "name": "solc",
    "version": "0.6.2+commit.bacdbe57.Emscripten.clang"
  },
  "schemaVersion": "3.3.1",
  "updatedAt": "2020-11-27T22:10:43.729Z",
  "networkType": "ethereum",
  "devdoc": {
    "methods": {
      "__callback(bytes32,string)": {
        "details": "The following `__callback` functions are just placeholders ideally     meant to be defined in child contract when proofs are used.     The function bodies simply silence compiler warnings."
      }
    }
  },
  "userdoc": {
    "methods": {}
  }
}