{
  "contractName": "MockedCoinFlip",
  "abi": [
    {
      "inputs": [],
      "stateMutability": "payable",
      "type": "constructor"
    },
    {
      "anonymous": false,
      "inputs": [
        {
          "indexed": true,
          "internalType": "address",
          "name": "user",
          "type": "address"
        },
        {
          "indexed": false,
          "internalType": "uint256",
          "name": "amount",
          "type": "uint256"
        },
        {
          "indexed": false,
          "internalType": "uint256",
          "name": "balance",
          "type": "uint256"
        }
      ],
      "name": "Deposit",
      "type": "event"
    },
    {
      "anonymous": false,
      "inputs": [
        {
          "indexed": true,
          "internalType": "address",
          "name": "user",
          "type": "address"
        },
        {
          "indexed": false,
          "internalType": "uint256",
          "name": "amount",
          "type": "uint256"
        },
        {
          "indexed": false,
          "internalType": "uint256",
          "name": "balance",
          "type": "uint256"
        }
      ],
      "name": "DepositToContract",
      "type": "event"
    },
    {
      "anonymous": false,
      "inputs": [
        {
          "indexed": true,
          "internalType": "address",
          "name": "user",
          "type": "address"
        },
        {
          "indexed": false,
          "internalType": "uint256",
          "name": "amount",
          "type": "uint256"
        },
        {
          "indexed": false,
          "internalType": "uint256",
          "name": "balance",
          "type": "uint256"
        }
      ],
      "name": "Withdraw",
      "type": "event"
    },
    {
      "anonymous": false,
      "inputs": [
        {
          "indexed": true,
          "internalType": "address",
          "name": "user",
          "type": "address"
        },
        {
          "indexed": false,
          "internalType": "uint256",
          "name": "amount",
          "type": "uint256"
        },
        {
          "indexed": false,
          "internalType": "uint256",
          "name": "balance",
          "type": "uint256"
        }
      ],
      "name": "WithdrawFromContract",
      "type": "event"
    },
    {
      "anonymous": false,
      "inputs": [
        {
          "indexed": true,
          "internalType": "address",
          "name": "player",
          "type": "address"
        },
        {
          "indexed": false,
          "internalType": "uint256",
          "name": "amount",
          "type": "uint256"
        },
        {
          "indexed": true,
          "internalType": "bool",
          "name": "win",
          "type": "bool"
        }
      ],
      "name": "betFinished",
      "type": "event"
    },
    {
      "anonymous": false,
      "inputs": [
        {
          "indexed": true,
          "internalType": "address",
          "name": "player",
          "type": "address"
        },
        {
          "indexed": false,
          "internalType": "uint256",
          "name": "amount",
          "type": "uint256"
        },
        {
          "indexed": false,
          "internalType": "bytes32",
          "name": "queryId",
          "type": "bytes32"
        }
      ],
      "name": "betStarted",
      "type": "event"
    },
    {
      "anonymous": false,
      "inputs": [
        {
          "indexed": false,
          "internalType": "string",
          "name": "description",
          "type": "string"
        }
      ],
      "name": "newProvableQuery",
      "type": "event"
    },
    {
      "inputs": [
        {
          "internalType": "bytes32",
          "name": "_myid",
          "type": "bytes32"
        },
        {
          "internalType": "string",
          "name": "_result",
          "type": "string"
        }
      ],
      "name": "__callback",
      "outputs": [],
      "stateMutability": "nonpayable",
      "type": "function"
    },
    {
      "inputs": [
        {
          "internalType": "bytes32",
          "name": "_queryId",
          "type": "bytes32"
        },
        {
          "internalType": "string",
          "name": "_result",
          "type": "string"
        },
        {
          "internalType": "bytes",
          "name": "_proof",
          "type": "bytes"
        }
      ],
      "name": "__callback",
      "outputs": [],
      "stateMutability": "nonpayable",
      "type": "function"
    },
    {
      "inputs": [],
      "name": "balance",
      "outputs": [
        {
          "internalType": "uint256",
          "name": "",
          "type": "uint256"
        }
      ],
      "stateMutability": "view",
      "type": "function"
    },
    {
      "inputs": [
        {
          "internalType": "uint256",
          "name": "side",
          "type": "uint256"
        },
        {
          "internalType": "uint256",
          "name": "value",
          "type": "uint256"
        }
      ],
      "name": "bet",
      "outputs": [],
      "stateMutability": "nonpayable",
      "type": "function"
    },
    {
      "inputs": [],
      "name": "deposit",
      "outputs": [],
      "stateMutability": "payable",
      "type": "function"
    },
    {
      "inputs": [],
      "name": "depositToContract",
      "outputs": [],
      "stateMutability": "payable",
      "type": "function"
    },
    {
      "inputs": [],
      "name": "fakeRandomValue",
      "outputs": [
        {
          "internalType": "uint256",
          "name": "",
          "type": "uint256"
        }
      ],
      "stateMutability": "view",
      "type": "function"
    },
    {
      "inputs": [],
      "name": "owner",
      "outputs": [
        {
          "internalType": "address",
          "name": "",
          "type": "address"
        }
      ],
      "stateMutability": "view",
      "type": "function"
    },
    {
      "inputs": [
        {
          "internalType": "address",
          "name": "",
          "type": "address"
        }
      ],
      "name": "playerBalance",
      "outputs": [
        {
          "internalType": "uint256",
          "name": "",
          "type": "uint256"
        }
      ],
      "stateMutability": "view",
      "type": "function"
    },
    {
      "inputs": [
        {
          "internalType": "address",
          "name": "",
          "type": "address"
        }
      ],
      "name": "procesingAddresses",
      "outputs": [
        {
          "internalType": "bool",
          "name": "",
          "type": "bool"
        }
      ],
      "stateMutability": "view",
      "type": "function"
    },
    {
      "inputs": [
        {
          "internalType": "bytes32",
          "name": "",
          "type": "bytes32"
        }
      ],
      "name": "procesingQueries",
      "outputs": [
        {
          "internalType": "address payable",
          "name": "player",
          "type": "address"
        },
        {
          "internalType": "uint256",
          "name": "value",
          "type": "uint256"
        },
        {
          "internalType": "uint256",
          "name": "side",
          "type": "uint256"
        },
        {
          "internalType": "bool",
          "name": "result",
          "type": "bool"
        }
      ],
      "stateMutability": "view",
      "type": "function"
    },
    {
      "inputs": [
        {
          "internalType": "address",
          "name": "player",
          "type": "address"
        }
      ],
      "name": "toggleProcesingAddresses",
      "outputs": [],
      "stateMutability": "nonpayable",
      "type": "function"
    },
    {
      "inputs": [
        {
          "internalType": "uint256",
          "name": "amount",
          "type": "uint256"
        }
      ],
      "name": "withdraw",
      "outputs": [],
      "stateMutability": "nonpayable",
      "type": "function"
    },
    {
      "inputs": [],
      "name": "withdrawFromContract",
      "outputs": [],
      "stateMutability": "nonpayable",
      "type": "function"
    },
    {
      "inputs": [
        {
          "internalType": "uint256",
          "name": "value",
          "type": "uint256"
        }
      ],
      "name": "_mock_setfakeRandomValue",
      "outputs": [],
      "stateMutability": "nonpayable",
      "type": "function"
    },
    {
      "inputs": [],
      "name": "isProvableAddress",
      "outputs": [
        {
          "internalType": "bool",
          "name": "",
          "type": "bool"
        }
      ],
      "stateMutability": "payable",
      "type": "function"
    }
  ],
  "bytecode": "0x6080604052336000806101000a81548173ffffffffffffffffffffffffffffffffffffffff021916908373ffffffffffffffffffffffffffffffffffffffff16021790555062000059603060f81b6200006660201b60201c565b3460068190555062000a8a565b600073ffffffffffffffffffffffffffffffffffffffff16600260009054906101000a900473ffffffffffffffffffffffffffffffffffffffff1673ffffffffffffffffffffffffffffffffffffffff161480620000f657506000620000f4600260009054906101000a900473ffffffffffffffffffffffffffffffffffffffff16620003cc60201b60201c565b145b1562000110576200010e6000620003d760201b60201c565b505b600260009054906101000a900473ffffffffffffffffffffffffffffffffffffffff1673ffffffffffffffffffffffffffffffffffffffff166338cc48316040518163ffffffff1660e01b8152600401602060405180830381600087803b1580156200017b57600080fd5b505af115801562000190573d6000803e3d6000fd5b505050506040513d6020811015620001a757600080fd5b810190808051906020019092919050505073ffffffffffffffffffffffffffffffffffffffff16600160009054906101000a900473ffffffffffffffffffffffffffffffffffffffff1673ffffffffffffffffffffffffffffffffffffffff1614620002f657600260009054906101000a900473ffffffffffffffffffffffffffffffffffffffff1673ffffffffffffffffffffffffffffffffffffffff166338cc48316040518163ffffffff1660e01b8152600401602060405180830381600087803b1580156200027857600080fd5b505af11580156200028d573d6000803e3d6000fd5b505050506040513d6020811015620002a457600080fd5b8101908080519060200190929190505050600160006101000a81548173ffffffffffffffffffffffffffffffffffffffff021916908373ffffffffffffffffffffffffffffffffffffffff1602179055505b600160009054906101000a900473ffffffffffffffffffffffffffffffffffffffff1673ffffffffffffffffffffffffffffffffffffffff1663688dcfd7826040518263ffffffff1660e01b815260040180827effffffffffffffffffffffffffffffffffffffffffffffffffffffffffffff19167effffffffffffffffffffffffffffffffffffffffffffffffffffffffffffff19168152602001915050600060405180830381600087803b158015620003b057600080fd5b505af1158015620003c5573d6000803e3d6000fd5b5050505050565b6000813b9050919050565b6000620003e9620003f060201b60201c565b9050919050565b60008062000418731d3b2638a7cc9f2cb3d298a3da7a90b67e5506ed620003cc60201b60201c565b1115620004c457731d3b2638a7cc9f2cb3d298a3da7a90b67e5506ed600260006101000a81548173ffffffffffffffffffffffffffffffffffffffff021916908373ffffffffffffffffffffffffffffffffffffffff160217905550620004ba6040518060400160405280600b81526020017f6574685f6d61696e6e6574000000000000000000000000000000000000000000815250620009bf60201b60201c565b60019050620009bc565b6000620004eb73c03a2615d5efaf5f49f60b7bb6583eaec212fdf1620003cc60201b60201c565b1115620005975773c03a2615d5efaf5f49f60b7bb6583eaec212fdf1600260006101000a81548173ffffffffffffffffffffffffffffffffffffffff021916908373ffffffffffffffffffffffffffffffffffffffff1602179055506200058d6040518060400160405280600c81526020017f6574685f726f707374656e330000000000000000000000000000000000000000815250620009bf60201b60201c565b60019050620009bc565b6000620005be73b7a07bcf2ba2f2703b24c0691b5278999c59ac7e620003cc60201b60201c565b11156200066a5773b7a07bcf2ba2f2703b24c0691b5278999c59ac7e600260006101000a81548173ffffffffffffffffffffffffffffffffffffffff021916908373ffffffffffffffffffffffffffffffffffffffff160217905550620006606040518060400160405280600981526020017f6574685f6b6f76616e0000000000000000000000000000000000000000000000815250620009bf60201b60201c565b60019050620009bc565b60006200069173146500cfd35b22e4a392fe0adc06de1a1368ed48620003cc60201b60201c565b11156200073d5773146500cfd35b22e4a392fe0adc06de1a1368ed48600260006101000a81548173ffffffffffffffffffffffffffffffffffffffff021916908373ffffffffffffffffffffffffffffffffffffffff160217905550620007336040518060400160405280600b81526020017f6574685f72696e6b656279000000000000000000000000000000000000000000815250620009bf60201b60201c565b60019050620009bc565b60006200076473a2998efd205fb9d4b4963afb70778d6354ad3a41620003cc60201b60201c565b1115620008105773a2998efd205fb9d4b4963afb70778d6354ad3a41600260006101000a81548173ffffffffffffffffffffffffffffffffffffffff021916908373ffffffffffffffffffffffffffffffffffffffff160217905550620008066040518060400160405280600a81526020017f6574685f676f65726c6900000000000000000000000000000000000000000000815250620009bf60201b60201c565b60019050620009bc565b600062000837736f485c8bf6fc43ea212e93bbf8ce046c7f1cb475620003cc60201b60201c565b11156200089d57736f485c8bf6fc43ea212e93bbf8ce046c7f1cb475600260006101000a81548173ffffffffffffffffffffffffffffffffffffffff021916908373ffffffffffffffffffffffffffffffffffffffff16021790555060019050620009bc565b6000620008c47320e12a1f859b3feae5fb2a0a32c18f5a65555bbf620003cc60201b60201c565b11156200092a577320e12a1f859b3feae5fb2a0a32c18f5a65555bbf600260006101000a81548173ffffffffffffffffffffffffffffffffffffffff021916908373ffffffffffffffffffffffffffffffffffffffff16021790555060019050620009bc565b6000620009517351efaf4c8b3c9afbd5ab9f4bbc82784ab6ef8faa620003cc60201b60201c565b1115620009b7577351efaf4c8b3c9afbd5ab9f4bbc82784ab6ef8faa600260006101000a81548173ffffffffffffffffffffffffffffffffffffffff021916908373ffffffffffffffffffffffffffffffffffffffff16021790555060019050620009bc565b600090505b90565b8060039080519060200190620009d7929190620009db565b5050565b828054600181600116156101000203166002900490600052602060002090601f016020900481019282601f1062000a1e57805160ff191683800117855562000a4f565b8280016001018555821562000a4f579182015b8281111562000a4e57825182559160200191906001019062000a31565b5b50905062000a5e919062000a62565b5090565b62000a8791905b8082111562000a8357600081600090555060010162000a69565b5090565b90565b6123ef8062000a9a6000396000f3fe6080604052600436106100f35760003560e01c80636ffcc7191161008a578063c5c833e211610059578063c5c833e2146105e3578063c8f781c21461064c578063d0e30db014610656578063e016935214610660576100f3565b80636ffcc719146104f15780638da5cb5b14610536578063b69ef8a81461058d578063bf0220b9146105b8576100f3565b80633b8d60d8116100c65780633b8d60d8146103bf5780634e33f83b1461045357806357a17cde146104b85780635f589e42146104da576100f3565b806327dc297e146100f85780632e1a7d4d146101ca5780633812c50c1461020557806338bbfa5014610256575b600080fd5b34801561010457600080fd5b506101c86004803603604081101561011b57600080fd5b81019080803590602001909291908035906020019064010000000081111561014257600080fd5b82018360208201111561015457600080fd5b8035906020019184600183028401116401000000008311171561017657600080fd5b91908080601f016020809104026020016040519081016040528093929190818152602001838380828437600081840152601f19601f82011690508083019250505050505050919291929050505061069b565b005b3480156101d657600080fd5b50610203600480360360208110156101ed57600080fd5b81019080803590602001909291905050506106de565b005b34801561021157600080fd5b506102546004803603602081101561022857600080fd5b81019080803573ffffffffffffffffffffffffffffffffffffffff1690602001909291905050506107ce565b005b34801561026257600080fd5b506103bd6004803603606081101561027957600080fd5b8101908080359060200190929190803590602001906401000000008111156102a057600080fd5b8201836020820111156102b257600080fd5b803590602001918460018302840111640100000000831117156102d457600080fd5b91908080601f016020809104026020016040519081016040528093929190818152602001838380828437600081840152601f19601f8201169050808301925050505050505091929192908035906020019064010000000081111561033757600080fd5b82018360208201111561034957600080fd5b8035906020019184600183028401116401000000008311171561036b57600080fd5b91908080601f016020809104026020016040519081016040528093929190818152602001838380828437600081840152601f19601f820116905080830192505050505050509192919290505050610939565b005b3480156103cb57600080fd5b506103f8600480360360208110156103e257600080fd5b8101908080359060200190929190505050610b3e565b604051808573ffffffffffffffffffffffffffffffffffffffff1673ffffffffffffffffffffffffffffffffffffffff1681526020018481526020018381526020018215151515815260200194505050505060405180910390f35b34801561045f57600080fd5b506104a26004803603602081101561047657600080fd5b81019080803573ffffffffffffffffffffffffffffffffffffffff169060200190929190505050610b9b565b6040518082815260200191505060405180910390f35b6104c0610bb3565b604051808215151515815260200191505060405180910390f35b3480156104e657600080fd5b506104ef610bbc565b005b3480156104fd57600080fd5b506105346004803603604081101561051457600080fd5b810190808035906020019092919080359060200190929190505050610cd5565b005b34801561054257600080fd5b5061054b610f98565b604051808273ffffffffffffffffffffffffffffffffffffffff1673ffffffffffffffffffffffffffffffffffffffff16815260200191505060405180910390f35b34801561059957600080fd5b506105a2610fbd565b6040518082815260200191505060405180910390f35b3480156105c457600080fd5b506105cd610fc3565b6040518082815260200191505060405180910390f35b3480156105ef57600080fd5b506106326004803603602081101561060657600080fd5b81019080803573ffffffffffffffffffffffffffffffffffffffff169060200190929190505050610fc9565b604051808215151515815260200191505060405180910390f35b610654610fe9565b005b61065e61112c565b005b34801561066c57600080fd5b506106996004803603602081101561068357600080fd5b8101908080359060200190929190505050611290565b005b6106da828260006040519080825280601f01601f1916602001820160405280156106d45781602001600182028038833980820191505090505b50610939565b5050565b80600760003373ffffffffffffffffffffffffffffffffffffffff1673ffffffffffffffffffffffffffffffffffffffff16815260200190815260200160002054101561072a57600080fd5b6000811161073757600080fd5b80600760003373ffffffffffffffffffffffffffffffffffffffff1673ffffffffffffffffffffffffffffffffffffffff168152602001908152602001600020600082825403925050819055503373ffffffffffffffffffffffffffffffffffffffff166108fc829081150290604051600060405180830381858888f193505050501580156107ca573d6000803e3d6000fd5b5050565b6000809054906101000a900473ffffffffffffffffffffffffffffffffffffffff1673ffffffffffffffffffffffffffffffffffffffff163373ffffffffffffffffffffffffffffffffffffffff161461082757600080fd5b60011515600960008373ffffffffffffffffffffffffffffffffffffffff1673ffffffffffffffffffffffffffffffffffffffff16815260200190815260200160002060009054906101000a900460ff16151514156108dd576000600960008373ffffffffffffffffffffffffffffffffffffffff1673ffffffffffffffffffffffffffffffffffffffff16815260200190815260200160002060006101000a81548160ff021916908315150217905550610936565b6001600960008373ffffffffffffffffffffffffffffffffffffffff1673ffffffffffffffffffffffffffffffffffffffff16815260200190815260200160002060006101000a81548160ff0219169083151502179055505b50565b60011515610945610bb3565b15151461095157600080fd5b600061095e84848461129a565b60ff161461096b57610b39565b6000610976836113ca565b9050610980612339565b600860008681526020019081526020016000206040518060800160405290816000820160009054906101000a900473ffffffffffffffffffffffffffffffffffffffff1673ffffffffffffffffffffffffffffffffffffffff1673ffffffffffffffffffffffffffffffffffffffff16815260200160018201548152602001600282015481526020016003820160009054906101000a900460ff16151515158152505090508181604001511415610a59576001816060019015159081151581525050610a54816000015182602001516113d6565b610a7d565b6000816060019015159081151581525050610a7c81600001518260200151611437565b5b600060096000836000015173ffffffffffffffffffffffffffffffffffffffff1673ffffffffffffffffffffffffffffffffffffffff16815260200190815260200160002060006101000a81548160ff02191690831515021790555080606001511515816000015173ffffffffffffffffffffffffffffffffffffffff167f2d4761b9337e04823a97ece057fc5686ba4c7399ea39dabb5b920f02615087b183602001516040518082815260200191505060405180910390a350505b505050565b60086020528060005260406000206000915090508060000160009054906101000a900473ffffffffffffffffffffffffffffffffffffffff16908060010154908060020154908060030160009054906101000a900460ff16905084565b60076020528060005260406000206000915090505481565b60006001905090565b6000809054906101000a900473ffffffffffffffffffffffffffffffffffffffff1673ffffffffffffffffffffffffffffffffffffffff163373ffffffffffffffffffffffffffffffffffffffff1614610c1557600080fd5b600060065411610c2457600080fd5b6000600654905060006006819055503373ffffffffffffffffffffffffffffffffffffffff166108fc829081150290604051600060405180830381858888f19350505050158015610c79573d6000803e3d6000fd5b503373ffffffffffffffffffffffffffffffffffffffff167f173ee011dfe568995c2e30a64b987d9f5291e3077938f0f4a6cd432f37d0e03082600654604051808381526020018281526020019250505060405180910390a250565b6000821480610ce45750600182145b610d56576040517f08c379a000000000000000000000000000000000000000000000000000000000815260040180806020018281038252601f8152602001807f73696465206d7573742062652068656164283029206f72207461696c2831290081525060200191505060405180910390fd5b806006541015610d6557600080fd5b80600760003373ffffffffffffffffffffffffffffffffffffffff1673ffffffffffffffffffffffffffffffffffffffff168152602001908152602001600020541015610db157600080fd5b60001515600960003373ffffffffffffffffffffffffffffffffffffffff1673ffffffffffffffffffffffffffffffffffffffff16815260200190815260200160002060009054906101000a900460ff16151514610e0e57600080fd5b6000610e18611498565b90506001600960003373ffffffffffffffffffffffffffffffffffffffff1673ffffffffffffffffffffffffffffffffffffffff16815260200190815260200160002060006101000a81548160ff02191690831515021790555060405180608001604052803373ffffffffffffffffffffffffffffffffffffffff168152602001838152602001848152602001600015158152506008600083815260200190815260200160002060008201518160000160006101000a81548173ffffffffffffffffffffffffffffffffffffffff021916908373ffffffffffffffffffffffffffffffffffffffff160217905550602082015181600101556040820151816002015560608201518160030160006101000a81548160ff0219169083151502179055509050503373ffffffffffffffffffffffffffffffffffffffff167f525acb9ae2faebcc472fd8857bdfc01d683f2de130e7952514a9c692606026d68383604051808381526020018281526020019250505060405180910390a2505050565b6000809054906101000a900473ffffffffffffffffffffffffffffffffffffffff1681565b60065481565b600a5481565b60096020528060005260406000206000915054906101000a900460ff1681565b6000809054906101000a900473ffffffffffffffffffffffffffffffffffffffff1673ffffffffffffffffffffffffffffffffffffffff163373ffffffffffffffffffffffffffffffffffffffff161461104257600080fd5b670de0b6b3a7640000803410156110c1576040517f08c379a00000000000000000000000000000000000000000000000000000000081526004018080602001828103825260168152602001807f6265742073686f756c64206d6f7265207468616e20310000000000000000000081525060200191505060405180910390fd5b346006600082825401925050819055503373ffffffffffffffffffffffffffffffffffffffff167f719a678c6170368d3e08a7171825b667d9f9b32520826d4fab3af939fef66e4234600654604051808381526020018281526020019250505060405180910390a250565b670de0b6b3a7640000803410156111ab576040517f08c379a00000000000000000000000000000000000000000000000000000000081526004018080602001828103825260168152602001807f6265742073686f756c64206d6f7265207468616e20310000000000000000000081525060200191505060405180910390fd5b34600760003373ffffffffffffffffffffffffffffffffffffffff1673ffffffffffffffffffffffffffffffffffffffff168152602001908152602001600020600082825401925050819055503373ffffffffffffffffffffffffffffffffffffffff167f90890809c654f11d6e72a28fa60149770a0d11ec6c92319d6ceb2bb0a4ea1a1534600760003373ffffffffffffffffffffffffffffffffffffffff1673ffffffffffffffffffffffffffffffffffffffff16815260200190815260200160002054604051808381526020018281526020019250505060405180910390a250565b80600a8190555050565b60007f4c00000000000000000000000000000000000000000000000000000000000000826000815181106112ca57fe5b602001015160f81c60f81b7effffffffffffffffffffffffffffffffffffffffffffffffffffffffffffff191614158061135d57507f50000000000000000000000000000000000000000000000000000000000000008260018151811061132d57fe5b602001015160f81c60f81b7effffffffffffffffffffffffffffffffffffffffffffffffffffffffffffff191614155b806113895750600160ff168260028151811061137557fe5b602001015160f81c60f81b60f81c60ff1614155b1561139757600190506113c3565b60006113ac8386866113a76114c3565b611565565b9050806113bd5760029150506113c3565b60009150505b9392505050565b6000600a549050919050565b8060066000828254039250508190555080600760008473ffffffffffffffffffffffffffffffffffffffff1673ffffffffffffffffffffffffffffffffffffffff168152602001908152602001600020600082825401925050819055505050565b8060066000828254019250508190555080600760008473ffffffffffffffffffffffffffffffffffffffff1673ffffffffffffffffffffffffffffffffffffffff168152602001908152602001600020600082825403925050819055505050565b60007f746573740000000000000000000000000000000000000000000000000000000060001b905090565b606060038054600181600116156101000203166002900480601f01602080910402602001604051908101604052809291908181526020018280546001816001161561010002031660029004801561155b5780601f106115305761010080835404028352916020019161155b565b820191906000526020600020905b81548152906001019060200180831161153e57829003601f168201915b5050505050905090565b600080602060028760458151811061157957fe5b602001015160f81c60f81b60f81c60ff1601604401019050606060206040519080825280601f01601f1916602001820160405280156115c75781602001600182028038833980820191505090505b5090506115d987836020846000611c10565b50600284876040516020018083805190602001908083835b6020831061161457805182526020820191506020810190506020830392506115f1565b6001836020036101000a038019825116818451168082178552505050505050905001828152602001925050506040516020818303038152906040526040518082805190602001908083835b60208310611682578051825260208201915060208101905060208303925061165f565b6001836020036101000a038019825116818451168082178552505050505050905001915050602060405180830381855afa1580156116c4573d6000803e3d6000fd5b5050506040513d60208110156116d957600080fd5b8101908080519060200190929190505050604051602001808281526020019150506040516020818303038152906040528051906020012081805190602001201461172857600092505050611c08565b6060600288600160498601018151811061173e57fe5b602001015160f81c60f81b60f81c60ff16016040519080825280601f01601f1916602001820160405280156117825781602001600182028038833980820191505090505b50905061179788604985018351846000611c10565b506118626002826040518082805190602001908083835b602083106117d157805182526020820191506020810190506020830392506117ae565b6001836020036101000a038019825116818451168082178552505050505050905001915050602060405180830381855afa158015611813573d6000803e3d6000fd5b5050506040513d602081101561182857600080fd5b8101908080519060200190929190505050878a600860208801018151811061184c57fe5b602001015160f81c60f81b60f81c60ff16611c6f565b6118725760009350505050611c08565b606060296040519080825280601f01601f1916602001820160405280156118a85781602001600182028038833980820191505090505b5090506118bd89602086016029846000611c10565b506060604080519080825280601f01601f1916602001820160405280156118f35781602001600182028038833980820191505090505b50905060006041845160296020890101010190506119198b604083036040856000611c10565b5060006002836040518082805190602001908083835b60208310611952578051825260208201915060208101905060208303925061192f565b6001836020036101000a038019825116818451168082178552505050505050905001915050602060405180830381855afa158015611994573d6000803e3d6000fd5b5050506040513d60208110156119a957600080fd5b8101908080519060200190929190505050905083816040516020018083805190602001908083835b602083106119f457805182526020820191506020810190506020830392506119d1565b6001836020036101000a0380198251168184511680821785525050505050509050018281526020019250505060405160208183030381529060405280519060200120600460008d8152602001908152602001600020541415611a6c57600460008c815260200190815260200160002060009055611a7c565b6000975050505050505050611c08565b606060496040519080825280601f01601f191660200182016040528015611ab25781602001600182028038833980820191505090505b509050611ac48d896049846000611c10565b50611b6d6002826040518082805190602001908083835b60208310611afe5780518252602082019150602081019050602083039250611adb565b6001836020036101000a038019825116818451168082178552505050505050905001915050602060405180830381855afa158015611b40573d6000803e3d6000fd5b5050506040513d6020811015611b5557600080fd5b81019080805190602001909291905050508786611d1f565b611b8257600098505050505050505050611c08565b6005600083815260200190815260200160002060009054906101000a900460ff16611bdc57611bb18d84611edd565b6005600084815260200190815260200160002060006101000a81548160ff0219169083151502179055505b6005600083815260200190815260200160002060009054906101000a900460ff16985050505050505050505b949350505050565b6060600082850190508084511015611c2757600080fd5b600086602001905060008460200190505b868860200101821015611c605781890151808288015250602082019150602081019050611c38565b85935050505095945050505050565b6000806001905082845114611c8357600080fd5b60008090505b83811015611d1357848181518110611c9d57fe5b602001015160f81c60f81b7effffffffffffffffffffffffffffffffffffffffffffffffffffffffffffff1916868260208110611cd657fe5b1a60f81b7effffffffffffffffffffffffffffffffffffffffffffffffffffffffffffff191614611d0657600091505b8080600101915050611c89565b50809150509392505050565b6000806000806000606060206040519080825280601f01601f191660200182016040528015611d5d5781602001600182028038833980820191505090505b5090506000602089600381518110611d7157fe5b602001015160f81c60f81b60f81c60ff16036004019050611d9789826020856000611c10565b9150606060206040519080825280601f01601f191660200182016040528015611dcf5781602001600182028038833980820191505090505b509050602282019150611e0b8a60208c6001860381518110611ded57fe5b602001015160f81c60f81b60f81c60ff160384016020846000611c10565b90506020830151945060208101519350611e288b601b87876122f5565b80975081985050508573ffffffffffffffffffffffffffffffffffffffff16898051906020012060001c73ffffffffffffffffffffffffffffffffffffffff161415611e7e576001975050505050505050611ed6565b611e8b8b601c87876122f5565b80975081985050508573ffffffffffffffffffffffffffffffffffffffff16898051906020012060001c73ffffffffffffffffffffffffffffffffffffffff16149750505050505050505b9392505050565b60008060606002856001860181518110611ef357fe5b602001015160f81c60f81b60f81c60ff16016040519080825280601f01601f191660200182016040528015611f375781602001600182028038833980820191505090505b509050611f4985858351846000611c10565b506060604080519080825280601f01601f191660200182016040528015611f7f5781602001600182028038833980820191505090505b509050611f928660046040846000611c10565b50606060626040519080825280601f01601f191660200182016040528015611fc95781602001600182028038833980820191505090505b509050600160f81b81600081518110611fde57fe5b60200101907effffffffffffffffffffffffffffffffffffffffffffffffffffffffffffff1916908160001a90535061201f87604188036041846001611c10565b5060606040518060400160405280602081526020017ffd94fa71bc0ba10d39d464d0d8f465efeef0a2764e3887fcc9df41ded20f505c815250905061206a8160006020856042611c10565b506121136002836040518082805190602001908083835b602083106120a45780518252602082019150602081019050602083039250612081565b6001836020036101000a038019825116818451168082178552505050505050905001915050602060405180830381855afa1580156120e6573d6000803e3d6000fd5b5050506040513d60208110156120fb57600080fd5b81019080805190602001909291905050508585611d1f565b945084612128576000955050505050506122ef565b606060405180606001604052806040815260200161237a604091399050606060426040519080825280601f01601f19166020018201604052801561217b5781602001600182028038833980820191505090505b50905060fe60f81b8160008151811061219057fe5b60200101907effffffffffffffffffffffffffffffffffffffffffffffffffffffffffffff1916908160001a9053506121cf8a60036041846001611c10565b50606060028b6045815181106121e157fe5b602001015160f81c60f81b60f81c60ff16016040519080825280601f01601f1916602001820160405280156122255781602001600182028038833980820191505090505b5090506122388b60448351846000611c10565b506122e16002836040518082805190602001908083835b60208310612272578051825260208201915060208101905060208303925061224f565b6001836020036101000a038019825116818451168082178552505050505050905001915050602060405180830381855afa1580156122b4573d6000803e3d6000fd5b5050506040513d60208110156122c957600080fd5b81019080805190602001909291905050508285611d1f565b975087985050505050505050505b92915050565b60008060008060405188815287602082015286604082015285606082015260208160808360006001610bb8f192508051915050818193509350505094509492505050565b6040518060800160405280600073ffffffffffffffffffffffffffffffffffffffff1681526020016000815260200160008152602001600015158152509056fe7fb956469c5c9b89840d55b43537e66a98dd4811ea0a27224272c2e5622911e8537a2f8e86a46baec82864e98dd01e9ccc2f8bc5dfc9cbe5a91a290498dd96e4a26469706673582212203334a75444ff30454a5e69e99abbcbe62c3d436d10ef843862e32a855681a1e664736f6c63430006020033",
  "source": "// SPDX-License-Identifier: GPL-3.0\npragma solidity > 0.6.1 < 0.7.0;\n\n// mocked version of CoinFlip contract - *only* used in tests\n\nimport \"../CoinFlip.sol\";\n\n\ncontract MockedCoinFlip is CoinFlip {\n\n    uint public fakeRandomValue;\n\n    constructor() payable public {\n        balance = msg.value;   \n    }\n\n    function getRandom(string memory _result) virtual internal view override returns(uint){\n        return fakeRandomValue;\n    }\n\n    function makeProvableQuery() virtual internal override returns(bytes32){\n        return 0x7465737400000000000000000000000000000000000000000000000000000000;\n    }    \n\n    function _mock_setfakeRandomValue(uint256 value) public {\n        fakeRandomValue = value;\n    }\n\n    function isProvableAddress() virtual public payable override returns(bool){\n        return true;\n    }\n\n    \n\n}\n",
  "sourcePath": "/Users/dominik/blockchain/flip_coin/backend/contracts/mocks/MockedCoinFlip.sol",
  "compiler": {
    "name": "solc",
    "version": "0.6.2+commit.bacdbe57.Emscripten.clang"
  },
  "schemaVersion": "3.3.1",
  "updatedAt": "2020-11-27T22:11:27.340Z",
  "networkType": "ethereum",
  "devdoc": {
    "methods": {
      "__callback(bytes32,string)": {
        "details": "The following `__callback` functions are just placeholders ideally     meant to be defined in child contract when proofs are used.     The function bodies simply silence compiler warnings."
      }
    }
  },
  "userdoc": {
    "methods": {}
  }
}