{
  "contractName": "MockedCoinFlip",
  "abi": [
    {
      "inputs": [],
      "stateMutability": "payable",
      "type": "constructor",
      "payable": true
    },
    {
      "anonymous": false,
      "inputs": [
        {
          "indexed": false,
          "internalType": "address",
          "name": "user",
          "type": "address"
        },
        {
          "indexed": false,
          "internalType": "uint256",
          "name": "amount",
          "type": "uint256"
        },
        {
          "indexed": false,
          "internalType": "uint256",
          "name": "balance",
          "type": "uint256"
        }
      ],
      "name": "Deposit",
      "type": "event"
    },
    {
      "anonymous": false,
      "inputs": [
        {
          "indexed": false,
          "internalType": "address",
          "name": "user",
          "type": "address"
        },
        {
          "indexed": false,
          "internalType": "uint256",
          "name": "amount",
          "type": "uint256"
        },
        {
          "indexed": false,
          "internalType": "uint256",
          "name": "balance",
          "type": "uint256"
        }
      ],
      "name": "Withdraw",
      "type": "event"
    },
    {
      "anonymous": false,
      "inputs": [],
      "name": "betLost",
      "type": "event"
    },
    {
      "anonymous": false,
      "inputs": [],
      "name": "betWin",
      "type": "event"
    },
    {
      "inputs": [],
      "name": "balance",
      "outputs": [
        {
          "internalType": "uint256",
          "name": "",
          "type": "uint256"
        }
      ],
      "stateMutability": "view",
      "type": "function",
      "constant": true
    },
    {
      "inputs": [
        {
          "internalType": "uint256",
          "name": "side",
          "type": "uint256"
        },
        {
          "internalType": "uint256",
          "name": "value",
          "type": "uint256"
        }
      ],
      "name": "bet",
      "outputs": [],
      "stateMutability": "nonpayable",
      "type": "function"
    },
    {
      "inputs": [],
      "name": "deposit",
      "outputs": [],
      "stateMutability": "payable",
      "type": "function",
      "payable": true
    },
    {
      "inputs": [],
      "name": "fakeRandomValue",
      "outputs": [
        {
          "internalType": "uint256",
          "name": "",
          "type": "uint256"
        }
      ],
      "stateMutability": "view",
      "type": "function",
      "constant": true
    },
    {
      "inputs": [
        {
          "internalType": "address",
          "name": "",
          "type": "address"
        }
      ],
      "name": "playerBalance",
      "outputs": [
        {
          "internalType": "uint256",
          "name": "",
          "type": "uint256"
        }
      ],
      "stateMutability": "view",
      "type": "function",
      "constant": true
    },
    {
      "inputs": [],
      "name": "withdraw",
      "outputs": [],
      "stateMutability": "nonpayable",
      "type": "function"
    },
    {
      "inputs": [],
      "name": "getRandom",
      "outputs": [
        {
          "internalType": "uint256",
          "name": "",
          "type": "uint256"
        }
      ],
      "stateMutability": "view",
      "type": "function",
      "constant": true
    },
    {
      "inputs": [
        {
          "internalType": "uint256",
          "name": "value",
          "type": "uint256"
        }
      ],
      "name": "_mock_setfakeRandomValue",
      "outputs": [],
      "stateMutability": "nonpayable",
      "type": "function"
    }
  ],
  "bytecode": "0x6080604052346000819055503460008190555061072c806100216000396000f3fe60806040526004361061007b5760003560e01c8063b69ef8a81161004e578063b69ef8a81461016c578063bf0220b914610197578063d0e30db0146101c2578063e0169352146101cc5761007b565b80633ccfd60b146100805780634e33f83b146100975780636ffcc719146100fc578063aacc5a1714610141575b600080fd5b34801561008c57600080fd5b50610095610207565b005b3480156100a357600080fd5b506100e6600480360360208110156100ba57600080fd5b81019080803573ffffffffffffffffffffffffffffffffffffffff169060200190929190505050610326565b6040518082815260200191505060405180910390f35b34801561010857600080fd5b5061013f6004803603604081101561011f57600080fd5b81019080803590602001909291908035906020019092919050505061033e565b005b34801561014d57600080fd5b506101566104ab565b6040518082815260200191505060405180910390f35b34801561017857600080fd5b506101816104b5565b6040518082815260200191505060405180910390f35b3480156101a357600080fd5b506101ac6104bb565b6040518082815260200191505060405180910390f35b6101ca6104c1565b005b3480156101d857600080fd5b50610205600480360360208110156101ef57600080fd5b810190808035906020019092919050505061062c565b005b6000600160003373ffffffffffffffffffffffffffffffffffffffff1673ffffffffffffffffffffffffffffffffffffffff168152602001908152602001600020541161025357600080fd5b6000600160003373ffffffffffffffffffffffffffffffffffffffff1673ffffffffffffffffffffffffffffffffffffffff1681526020019081526020016000205490506000600160003373ffffffffffffffffffffffffffffffffffffffff1673ffffffffffffffffffffffffffffffffffffffff168152602001908152602001600020819055503373ffffffffffffffffffffffffffffffffffffffff166108fc829081150290604051600060405180830381858888f19350505050158015610322573d6000803e3d6000fd5b5050565b60016020528060005260406000206000915090505481565b600082148061034d5750600182145b6103bf576040517f08c379a000000000000000000000000000000000000000000000000000000000815260040180806020018281038252601f8152602001807f73696465206d7573742062652068656164283029206f72207461696c2831290081525060200191505060405180910390fd5b8060005410156103ce57600080fd5b80600160003373ffffffffffffffffffffffffffffffffffffffff1673ffffffffffffffffffffffffffffffffffffffff16815260200190815260200160002054101561041a57600080fd5b600033905060006104296104ab565b90508084141561046e5761043d8284610636565b7f128e2e59a6cd95d8b9f0e9e419cdd2a51298d8cdc373567665bc54a554dfa40060405160405180910390a16104a5565b6104788284610696565b7f6e27035ae72989f90234f1e517a364366e6a29e90d55de67bf34b66339e0704760405160405180910390a15b50505050565b6000600254905090565b60005481565b60025481565b670de0b6b3a764000080341015610540576040517f08c379a00000000000000000000000000000000000000000000000000000000081526004018080602001828103825260168152602001807f6265742073686f756c64206d6f7265207468616e20310000000000000000000081525060200191505060405180910390fd5b34600160003373ffffffffffffffffffffffffffffffffffffffff1673ffffffffffffffffffffffffffffffffffffffff168152602001908152602001600020600082825401925050819055507f90890809c654f11d6e72a28fa60149770a0d11ec6c92319d6ceb2bb0a4ea1a153334600160003373ffffffffffffffffffffffffffffffffffffffff1673ffffffffffffffffffffffffffffffffffffffff16815260200190815260200160002054604051808473ffffffffffffffffffffffffffffffffffffffff168152602001838152602001828152602001935050505060405180910390a150565b8060028190555050565b80600080828254039250508190555080600160008473ffffffffffffffffffffffffffffffffffffffff1673ffffffffffffffffffffffffffffffffffffffff168152602001908152602001600020600082825401925050819055505050565b80600080828254019250508190555080600160008473ffffffffffffffffffffffffffffffffffffffff1673ffffffffffffffffffffffffffffffffffffffff16815260200190815260200160002060008282540392505081905550505056fea264697066735822122085fa6f5afd69ac791d4475369363ac335172dcccbaf1c13ae42d47fb5e83284764736f6c63430007040033",
  "immutableReferences": {},
  "source": "// SPDX-License-Identifier: GPL-3.0\npragma solidity 0.7.4;\n\n// mocked version of CoinFlip contract - *only* used in tests\n\nimport \"../CoinFlip.sol\";\n\n\ncontract MockedCoinFlip is CoinFlip {\n\n    uint public fakeRandomValue;\n\n    constructor() payable {\n        balance = msg.value;   \n    }\n\n    function getRandom() virtual public view override returns(uint){\n        return fakeRandomValue;\n    }\n\n    function _mock_setfakeRandomValue(uint256 value) public {\n        fakeRandomValue = value;\n    }\n\n}\n",
  "sourcePath": "/Users/dominik/blockchain/flip_coin/backend/contracts/mocks/MockedCoinFlip.sol",
  "compiler": {
    "name": "solc",
    "version": "0.7.4+commit.3f05b770.Emscripten.clang"
  },
  "schemaVersion": "3.3.1",
  "updatedAt": "2020-11-09T16:03:28.063Z",
  "networkType": "ethereum",
  "devdoc": {
    "kind": "dev",
    "methods": {},
    "version": 1
  },
  "userdoc": {
    "kind": "user",
    "methods": {},
    "version": 1
  }
}