{
  "contractName": "Ownable",
  "abi": [
    {
      "inputs": [],
      "stateMutability": "nonpayable",
      "type": "constructor"
    },
    {
      "inputs": [],
      "name": "owner",
      "outputs": [
        {
          "internalType": "address",
          "name": "",
          "type": "address"
        }
      ],
      "stateMutability": "view",
      "type": "function"
    }
  ],
  "bytecode": "0x608060405234801561001057600080fd5b50336000806101000a81548173ffffffffffffffffffffffffffffffffffffffff021916908373ffffffffffffffffffffffffffffffffffffffff16021790555060d08061005f6000396000f3fe6080604052348015600f57600080fd5b506004361060285760003560e01c80638da5cb5b14602d575b600080fd5b60336075565b604051808273ffffffffffffffffffffffffffffffffffffffff1673ffffffffffffffffffffffffffffffffffffffff16815260200191505060405180910390f35b6000809054906101000a900473ffffffffffffffffffffffffffffffffffffffff168156fea2646970667358221220def7754f74e75f56ef0962f83e436c904fbbf585be698fcd1574230b69d9744b64736f6c63430006020033",
  "source": "// SPDX-License-Identifier: GPL-3.0\npragma solidity > 0.6.1 < 0.7.0;\n\ncontract Ownable{\n    address public owner;\n    \n    modifier onlyOwner(){\n        require(msg.sender == owner);\n        _; //Continue execution\n    }\n    \n    constructor() public{\n        owner = msg.sender;\n    }\n    \n}",
  "sourcePath": "/Users/dominik/blockchain/flip_coin/backend/contracts/Ownable.sol",
  "compiler": {
    "name": "solc",
    "version": "0.6.2+commit.bacdbe57.Emscripten.clang"
  },
  "schemaVersion": "3.3.1",
  "updatedAt": "2020-11-20T20:22:42.873Z",
  "devdoc": {
    "methods": {}
  },
  "userdoc": {
    "methods": {}
  }
}